:100000000C9456030C9473030C9473030C94A51274
:100010000C9473030C9473030C9473030C94730388
:100020000C9473030C947F060C9473030C94E803F4
:100030000C9473030C9475030C9487030C94730352
:100040000C9473030C9473030C9473030C94730358
:100050000C9473030C94FD110C9473030C947303B0
:100060000C94EC280C947303036EDB363D9A99993B
:10007000993DABAAAA2A3E000000803F084AD73B20
:100080003BCE016E84BCBFFDC12F3D6C74319ABD67
:1000900056833DDA3D00C77F11BED9E4BB4C3E918B
:1000A0006BAAAABE000000803F072C7AA5BA6CC5D7
:1000B00090DA3B9365FC8BBC53F810FD3C56928361
:1000C0004DBD879D3AB63DCBC9BF5BBE73DA0FC944
:1000D0003F05A84CCDB2D44EB93836A9020C50B960
:1000E000918688083CA6AAAA2ABE000000803F0686
:1000F00064EC1B3C04BC163E3BE5B93CC93C37C232
:100100009E5A3D660498083EEA69AAAA3E0000008D
:10011000803F000000000000005F000000070007B3
:1001200000147F147F14242A7F2A12231308646288
:1001300036495522500005030000001C22410000F2
:1001400041221C00082A1C2A0808083E0808005002
:10015000300000080808080800606000002010084F
:1001600004023E5149453E00427F400042615149F0
:10017000462141454B311814127F1027454545391A
:100180003C4A494930017109050336494949360657
:100190004949291E00363600000056360000000886
:1001A00014224114141414144122140800020151A1
:1001B0000906324979413E7E1111117E7F49494934
:1001C000363E414141227F4141221C7F49494941FC
:1001D0007F090901013E414151327F0808087F0033
:1001E000417F41002040413F017F081422417F4070
:1001F0004040407F0204027F7F0408107F3E41415F
:10020000413E7F090909063E4151215E7F091929B6
:1002100046464949493101017F01013F4040403F85
:100220001F2040201F7F2018207F631408146303C1
:1002300004780403615149454300007F41410204B1
:1002400008102041417F00000402010204404040A8
:100250004040000102040020545454787F48444434
:10026000383844444420384444487F38545454185F
:10027000087E090102081454543C7F0804047800E5
:10028000447D40002040443D00007F102844004150
:100290007F40007C041804787C08040478384444C7
:1002A00044387C14141408081414187C7C080404C2
:1002B000084854545420043F4440203C4040207C93
:1002C0001C2040201C3C4030403C44281028440C5A
:1002D0005050503C4464544C4400083641000000E7
:1002E0007F0000004136080008082A1C08081C2A64
:1002F0000808FF8181FF000000FF9F9191F191911B
:1003000091FFF01010FFF191919FFF91919F8080DC
:1003100080FFFF9191FFF19191FF00000000535584
:100320004E4D4F4E545545574544544855465249F5
:100330005341540000004A414E4645424D4152410E
:1003400050524D41594A554E4A554C4155475345D7
:10035000504F43544E4F56444543000B3E4141419C
:1003600041424242423C0006FFFFFFFFFFFF000008
:1003700000000000005F00000007000700147F1469
:100380007F14242A7F2A12231308646236495522D7
:10039000500005030000001C2241000041221C0007
:1003A000082A1C2A0808083E0808005030000008E7
:1003B00008080808006060000020100804023E5190
:1003C00049453E00427F4000426151494621414536
:1003D0004B311814127F1027454545393C4A49498D
:1003E0003001710905033649494936064949291E34
:1003F0000036360000005636000000081422411472
:10040000141414144122140800020151090632493F
:1004100079413E7E1111117E7F494949363E414165
:1004200041227F4141221C7F494949417F090901FD
:10043000013E414151327F0808087F00417F410061
:100440002040413F017F081422417F404040407FCF
:100450000204027F7F0408107F3E4141413E7F0934
:100460000909063E4151215E7F091929464649493D
:10047000493101017F01013F4040403F1F204020A2
:100480001F7F2018207F631408146303047804037B
:10049000615149454300007F414102040810204159
:1004A000417F00000402010204404040404000013E
:1004B00002040020545454787F484444383844445B
:1004C0004420384444487F3854545418087E090165
:1004D00002081454543C7F0804047800447D400012
:1004E0002040443D00007F10284400417F40007CB4
:1004F000041804787C0804047838444444387C1494
:10050000141408081414187C7C0804040848545473
:100510005420043F4440203C4040207C1C2040208C
:100520001C3C4030403C44281028440C5050503C67
:100530004464544C44000836410000007F00000031
:100540004136080008082A1C08081C2A08084932F5
:10055000433A204255535F4552524F520D0A0049CB
:1005600032433A204E4F5F494E464F0D0A00493202
:10057000433A2053542D3E444154415F4E41434B36
:10058000206F72204C4153545F444154410D0A0086
:100590004932433A2053542D3E444154415F414334
:1005A0004B0D0A004932433A2053542D3E534C41DF
:1005B0005F41434B0D0A004932433A2053522D3ECE
:1005C00053525F53544F500D0A004932433A20535F
:1005D000522D3E444154415F4E41434B0D0A004968
:1005E00032433A2053522D3E444154415F41434BE4
:1005F0000D0A004932433A2053522D3E534C415F7D
:1006000041434B0D0A004932433A204D522D3E538F
:100610004C415F41434B0D0A004932433A204D5251
:100620002D3E444154415F41434B0D0A0049324342
:100630003A204D542D3E4152425F4C4F53540D0AC7
:10064000004932433A204D54522D3E534C415F4EA7
:1006500041434B206F72204D542D3E444154415F25
:100660004E41434B0D0A004932433A204D522D3E34
:10067000444154415F4E41434B0D0A004932433AD5
:10068000204D542D3E534C415F41434B206F72200F
:10069000444154415F41434B0D0A004932433A20E3
:1006A0004D2D3E53544152540D0A000011241FBEDB
:1006B000CFEFD8E0DEBFCDBF14E0A0E0B1E0E0EFC7
:1006C000FBE602C005900D92A635B107D9F715E0FB
:1006D000A6E5B4E001C01D92A231B107E1F70E9486
:1006E00007080C94F6350C9400001F920F920FB679
:1006F0000F9211248F939F9388B198E0892788B92E
:100700009F918F910F900FBE0F901F9018951F9281
:100710000F920FB60F9211248F939F9380915D04D7
:1007200090915E04892B49F080915D0490915E0464
:10073000019790935E0480935D048091D70490911B
:10074000D804892B49F08091D7049091D80401975F
:100750009093D8048093D7048091D504882389F19D
:1007600080915B0490915C04892B59F58091CC04B5
:100770009091CD04892BE1F48CE291E09093CD042B
:100780008093CC0480918100882379F410928000BA
:1007900089E08093810083E080936F0088EE93E08E
:1007A000909389008093880003C010928100439841
:1007B0008091CC049091CD0401979093CD048093C7
:1007C000CC049F918F910F900FBE0F901F901895A2
:1007D0001F920F920FB60F9211248F939F9388B19F
:1007E00098E0892788B99F918F910F900FBE0F9045
:1007F0001F901895AF92BF92CF92DF92EF92FF9227
:100800000F931F93E62E1092800029E02093810021
:1008100023E020936F009C0140E050E060E079E02D
:100820008DE390E00E94AA353093890020938800E0
:10083000FF2400E010E0C801B7010E94C7325B014D
:100840006C0120E030E04AEF54E40E9461347B0107
:100850008C0120E030E040E85FE30E9427328823EB
:100860001CF461E070E024C0C801B70120E03FEF54
:100870004FE757E40E9456341816B4F4C601B50188
:1008800020E030E040E251E40E9461340E949B325B
:1008900088EC90E005C0FC013197F1F761507040A1
:1008A00061157105C1F707C0C801B7010E949B32ED
:1008B000CB010197F1F71092810043981F910F919E
:1008C000FF90EF90DF90CF90BF90AF900895FC0124
:1008D00083709070892B39F4CF0164E670E00E9438
:1008E0006135892B49F420E030E0CF0160E971E007
:1008F0000E946135892B11F421E030E0822F0895A8
:100900000895482F6AE00E945535282F30E084E092
:10091000220F331F8A95E1F7842F0E945535892FC6
:10092000822B089588E592E090935C0480935B04A9
:100930001092810043981092D60408951E9B16C011
:100940008091D204882321F11092D2041092DB040A
:1009500010925C0410925B048091D5048823C1F04E
:100960001092D50410928100439808958091D2048A
:10097000882371F481E08093D20410925C04109279
:100980005B0483E080935A04809359040E948E157F
:1009900008950F931F93182F062F6AE00E94553574
:1009A000805D602F0E94C223812F6AE00E9455352E
:1009B000892F805D602F0E94C2231F910F9108959F
:1009C000CF92DF92EF92FF920F931F93DF93CF931B
:1009D000CDB7DEB728970FB6F894DEBF0FBECDBFF8
:1009E000162FF42ED22EFE01319698E0DF011D92D3
:1009F0009A95E9F719820E9481048A83812F0E94C7
:100A000081048B838F2D0E9481048C838D2D0E9405
:100A100081048D83802F0E9481048E838E2D0E94FD
:100A200081048F838C2D0E9481048887F89480ED47
:100A300068E0AE014F5F5F4F0E9452287894882390
:100A4000D9F008EC10E080EA9FE064E60E94FA0327
:100A500088EE93E0F8013197F1F70197D9F780EA32
:100A60009FE064E60E94FA0380E197E2F801319783
:100A7000F1F70197D9F7E7CF28960FB6F894DEBFC4
:100A80000FBECDBFCF91DF911F910F91FF90EF90DF
:100A9000DF90CF9008950F931F93DF93CF93CDB73F
:100AA000DEB729970FB6F894DEBF0FBECDBF19820F
:100AB000F89480ED61E0AE014F5F5F4F0E945228D5
:100AC0008823E1F008EC10E0789480EA9FE064E687
:100AD0000E94FA0388EE93E0F8013197F1F701974D
:100AE000D9F780EA9FE064E60E94FA0380E197E28A
:100AF000F8013197F1F70197D9F7E6CF80ED67E07C
:100B0000AE014E5F5F4F0E94992878948823D9F0F8
:100B100008EC10E080EA9FE064E60E94FA0388EEA9
:100B200093E0F8013197F1F70197D9F780EA9FE058
:100B300064E60E94FA0380E197E2F8013197F1F749
:100B40000197D9F7E7CF7A81872F82958F7090E050
:100B5000877090709C01A3E0220F331FAA95E1F7E4
:100B6000880F991F280F391F872F8F70820F80934E
:100B7000DA044B81842F82958F7090E0877090709B
:100B80009C01E3E0220F331FEA95E1F7880F991FDC
:100B9000280F391F4F70420F4093D0048C81482F8B
:100BA00042954F70682F6F7086FF22C082958695A0
:100BB000877090E0817090709C01220F331F280F86
:100BC000391F220F331F220F331F842F90E08170B3
:100BD0009070AC0103E0440F551F0A95E1F7880FB0
:100BE000991F480F591F240F260F2093C70411C0C7
:100BF000842F90E0837090709C01B3E0220F331F2C
:100C0000BA95E1F7880F991F280F391F620F60937B
:100C1000C7044E81842F82958F7090E0837090700E
:100C20009C01F3E0220F331FFA95E1F7880F991F1B
:100C3000280F391F4F70420F4093CF044F81842FEC
:100C400082958F7090E0817090709C0163E0220F1C
:100C5000331F6A95E1F7880F991F280F391F4F70CE
:100C6000420F4093D9042885822F82958F703AE0F5
:100C7000839FC00111242F70280F2093CA04872F4F
:100C8000807829960FB6F894DEBF0FBECDBFCF9106
:100C9000DF911F910F910895CF92EF920F930E94D1
:100CA000AC270E944B05882359F080E060E04CE0BF
:100CB00020E001E0EE24E394B9E0CB2E0E94E004B2
:100CC0000E944B0582E090E00E94C5356CE30E94D3
:100CD00055359093CB0481E090E00E94C53568E1E2
:100CE0000E9455359093D40487E08093B10081E051
:100CF0008093700078940F91EF90CF9008951F9299
:100D00000F920FB60F921124FF920F931F932F9300
:100D10003F934F935F936F937F938F939F93AF9383
:100D2000BF93EF93FF93A89580915F04803579F48A
:100D300010925F04F090DA041091D0040091C7047F
:100D40000E944B058091C704801729F40AC08F5F69
:100D500080935F04DBC081E0809358040093D1044A
:100D600007C08091D004811729F081E08093570457
:100D70001093C8048091DA048F1509F441C0809162
:100D8000D504882359F080915B0490915C0400970E
:100D900029F0019790935C0480935B04809159043F
:100DA000882371F180915904815080935904809176
:100DB0005904882329F580915A048093680410927D
:100DC0005A0480915804882329F08091D10480939B
:100DD000C70404C080915704882321F08091C8047F
:100DE0008093D0040E948E1580915804882321F4AA
:100DF00080915704882321F00093C7041093D004F6
:100E00008091D604843061F08091D604853041F021
:100E10008091D604883021F08091D604863089F5FF
:100E200080916204882369F584E462E00E9465276A
:100E30008091C70460E00E94BC098AE360E00E94E0
:100E4000C2238091D00460E00E94C9048AE360E07C
:100E50000E94C2238091DA0460E00E94C90480915C
:100E6000C904882371F480E260E00E94C22380916B
:100E7000C7048C3010F080E501C081E460E00E947E
:100E8000C2238091D204882399F08091DA048823C8
:100E900079F49091D0048091CB04981749F4909103
:100EA000C7048091D404981719F481E08093DB047F
:100EB00080915704882369F480915804882349F469
:100EC0008091DB04882329F081E08093D50410927F
:100ED000DB0480916004863039F4109260048091C4
:100EE0006604882329F409C08F5F809360040EC0D4
:100EF0008091660481508093660480916104882308
:100F000029F080916104815080936104FF91EF91F9
:100F1000BF91AF919F918F917F916F915F914F9111
:100F20003F912F911F910F91FF900F900FBE0F9047
:100F30001F901895EF92FF920F931F93F82E162F84
:100F4000E42E21E001E00E940B24FE0C0F2D025044
:100F50001150802F612F0E944E251E5F802F612F20
:100F60000E944E2501501350802F612F0E944E2564
:100F70001C5F802F612F0E944E251F910F91FF90C3
:100F8000EF90089580E090E00E94C535833CF1F138
:100F900081E090E068E00E94D33582E090E060E07C
:100FA0000E94D33583E090E060E10E94D33584E075
:100FB00090E061E00E94D33585E090E060E00E941F
:100FC000D33586E090E060E00E94D33587E090E082
:100FD0006AE00E94D33580E090E063EC0E94D33554
:100FE00088E090E068E671E00E94E1358AE090E0F8
:100FF00064E675E00E94E1358CE090E06BE00E94D1
:10100000D3358DE090E061E00E94D33508957F9262
:101010008F929F92AF92BF92CF92DF92EF92FF9208
:101020000F931F93CF93DF9384B714BE88E10FB65D
:10103000F89480936000109260000FBE8AE190E007
:101040000E9401223B9A0E944C060E948F130E942C
:10105000C20785E090E00E94C5358093D30486E006
:1010600090E00E94C5358093C9040E94D2110E946D
:101070009E0482E084BD83E085BD8DE787BD8091BD
:101080006E00826080936E00539A80E28093B0007D
:101090008091B00083608093B0008091B10088603F
:1010A0008093B10080E18093B30083E090E00E94E0
:1010B000C5358093B400259A80EA9FE064E60E94DB
:1010C000FA032FE088E190E00FB6F894A89580939A
:1010D00060000FBE209360000E9493270E946F273C
:1010E0000E94AC2A0E94751D80E00E94DE1C00E078
:1010F00010E06BE4A62EB12CC8E5D2E052E0752ECC
:10110000CC24C39443E0F42E35E0D32E24E0E22E29
:1011100098E0992E86E0882EB092D804A092D70449
:101120008091C7046091D0040E946E2A0E945331BE
:1011300080916404882379F08091D504882359F044
:1011400010926404D0935C04C0935B0410928100FD
:1011500043981092D604113039F4809159048823B1
:10116000F1F4D0925A0408C0123061F4809159040D
:101170008823A9F4C0925A04F09259040E948E1553
:1011800013E00DC0133059F480915904882339F4C9
:1011900070925A04109359040E948E1510E08091A9
:1011A0006404867041F1109264048091D304882312
:1011B00021F08091D304813019F4C0925A0412C0F6
:1011C0008091D304823021F08091D304833021F4C4
:1011D000E0925A0412E00BC08091D304843021F4D1
:1011E000D0925A0413E003C0E0925A0411E0F09246
:1011F00059040E948E158091640480FF44C01092AF
:10120000640410925A04109259040E948E15809121
:10121000D604843089F0853028F4882341F0833067
:1012200009F511C08530A1F08830E1F416C0E092D4
:10123000D6040E94E60D1DC0F092D6040E94450C13
:101240001092000116C0D092D6040E94131011C053
:101250009092D6040E94E60E0CC08092D6040E94A2
:10126000AD0F07C01092D6040E946F2780E00E9445
:10127000DE1C8091D604882329F40E946F2780E029
:101280000E94DE1C10E00E94C11D8091D6048823BC
:1012900039F5002369F48091D504882369F08091A1
:1012A000DA0480FF09C081E00E94DE1C01E018C062
:1012B0008091D504882351F08091D504882359F07A
:1012C000002349F08091DA0480FD05C080E00E948F
:1012D000DE1C00E005C02D9A802F0E94EF1B2D9888
:1012E0008091D7049091D804892BD1F715CF0F9313
:1012F0001F93CF93DF93182F062F8091C904882363
:1013000071F584E761E00E9465271C3010F080E5EC
:1013100001C081E460E00E94C2238DE460E00E948D
:10132000C22380E561E00E946527812F90E0479607
:101330006CE070E00E947535EC018930910524F075
:101340009C012F5F822F10C080E260E00E94C223C8
:101350009E012F5C822F602F0E94C22308C080E56F
:1013600061E00E946527812F602F0E94C904DF91F0
:10137000CF911F910F9108950F931F93CF93DF93F8
:10138000082F162F8091C9048823D1F4802F90E074
:1013900047966CE070E00E947535EC01893091054C
:1013A00024F09C012F5F822F14C080E260E00E9435
:1013B000C2239E012F5C822F612F0E94C2230CC08A
:1013C00080E260E00E94C22380E260E00E94C223CB
:1013D000802F612F0E94C904DF91CF911F910F913F
:1013E00008951F93182F88E064E00E94652781E02C
:1013F00091E060E00E94FA238091D304882339F4BD
:101400008091C904882319F48AE091E078C0809122
:10141000D304882339F48091C904813019F487E119
:1014200091E06DC08091D304813039F48091C9047A
:10143000882319F484E291E062C08091D304813062
:1014400039F48091C904813019F481E391E057C0E7
:101450008091D304823039F48091C904882319F42F
:101460008EE391E04CC08091D304823039F48091B6
:10147000C904813019F48BE491E041C08091D30418
:10148000833039F48091C904882319F488E591E008
:1014900036C08091D304833039F48091C9048130FF
:1014A00019F485E691E02BC08091D304843039F49F
:1014B0008091C904882319F482E791E020C08091CB
:1014C000D304843039F48091C904813019F48FE752
:1014D00091E015C08091D304853039F48091C9041E
:1014E000882319F48CE891E00AC08091D3048530F8
:1014F00049F48091C904813029F489E991E0612F90
:101500000E94FA231F910895282F663081F16730D9
:1015100078F4633019F1643030F46130C9F062302E
:1015200009F03FC018C06430E1F06530D1F51CC04F
:10153000693031F16A3028F46730E1F0683089F5BC
:101540001CC06B3019F16B30F0F06C3051F524C0D9
:1015500086EA91E01DC08AEA91E01AC08EEA91E025
:1015600017C082EB91E014C086EB91E011C08AEBCA
:1015700091E00EC08EEB91E00BC082EC91E008C0D0
:1015800086EC91E005C08AEC91E002C08EEC91E01F
:10159000622F0E94FA23089582ED91E0622F0E944B
:1015A000FA2308951F93182F862F642F422F0E942D
:1015B00023168330B9F0843028F4813069F082300A
:1015C00070F407C08530A1F0853078F08630C1F422
:1015D00012C086ED91E011C08BED91E00EC080EE5F
:1015E00091E00BC085EE91E008C08AEE91E005C065
:1015F0008FEE91E002C084EF91E0612F0E94FA2308
:101600001F910895EF92FF920F931F93182F062FAB
:10161000E42EF22E88E063E00E94652789EF91E0D6
:1016200060E00E94FA238091D304882331F48FEF85
:1016300091E060E00E94FA2318C08091D3048130C9
:1016400031F48FEF91E060E00E94FA232FC0809187
:10165000D3048230E9F480E260E00E94C22380E09B
:10166000612F402F2E2D0E94D20A60E08BE0F816E9
:1016700009F461E0812F0E94C9048FE260E00E94BA
:10168000C22360E09CE0F91609F461E0802F20C0DD
:101690008091D304833001F580E260E00E94C22390
:1016A00080E0612F402F2E2D0E94D20A60E08CE056
:1016B000F81609F461E0802F0E94C9048FE260E00F
:1016C0000E94C22360E09BE0F91609F461E0812FDB
:1016D0000E94C9048FE23EC08091D3048430F9F4A3
:1016E00085E092E060E00E94FA2380E09BE0F9163A
:1016F00009F481E0612F0E94840A80E260E00E9488
:10170000C22360E08CE0F81609F461E0802F0E94AB
:10171000C9048CE260E00E94C22380E21BC080E02A
:10172000612F402F2E2D0E94D20A80E09BE0F916F7
:1017300009F481E0612F0E94840A80E260E00E9447
:10174000C22360E08CE0F81609F461E0802F0E946B
:10175000C9048CE260E00E94C22310E09DE0F9160B
:1017600009F411E084E1612F0E94C9048E2D612FDC
:101770000E94C9041F910F91FF90EF9008958091EE
:1017800062048F5F809362040E946F2780E060E0B4
:101790000E94652789E092E060E00E94FA2388E0D9
:1017A00061E00E9465278CE192E060E00E94FA23EC
:1017B0008091D40460E00E9477098AE360E00E948F
:1017C000C2238091CB0460E00E94C90488E062E0FB
:1017D0000E94652789E292E060E00E94FA238091EE
:1017E000C70460E00E94BC098AE360E00E94C22353
:1017F0008091D00460E00E94C9048AE360E00E9406
:10180000C2238091DA0460E00E94C9048091C90477
:10181000882371F480E260E00E94C2238091C704B3
:101820008C3010F080E501C081E460E00E94C223AA
:101830008091D9046091CF044091CA0425E00E94B0
:10184000020B80E00E94F10988E065E00E946527B4
:1018500084E392E060E00E94FA2380E066E00E9468
:10186000652780E492E060E00E94FA2380E067E070
:101870000E94652786E592E060E00E94FA2380914D
:1018800062048150809362040895BF92CF92DF92E8
:10189000EF92FF920F931F93CF93DF931091C704A2
:1018A000D090D004F090DA040E94BF0B80916204C3
:1018B0008F5F8093620480E063E147E00E949A07B3
:1018C000809162048150809362048AE08093610475
:1018D00003E08AE0B82EC8ECD0E08091640480FD7B
:1018E0006BC180916404882321F48091650488236E
:1018F00019F0B092610407C080916104882319F443
:101900001092D60459C18091640481FFDCC010920A
:101910006404809162048F5F80936204033081F5D8
:1019200084E462E00E946527812F61E00E94BC0987
:1019300084E762E00E9465278091C904882361F4EE
:1019400080E260E00E94C2231C3010F080E501C0FC
:1019500081E461E00E94C22380E066E00E94652786
:1019600087E692E060E00E94FA2380E067E00E9450
:1019700065278DE792E060E00E94FA2305E69EC0AD
:101980000536C1F584E462E00E946527812F60E09E
:101990000E94BC098AE360E00E94C2238D2D61E0B1
:1019A0000E94C90480E066E00E94652783E992E016
:1019B00060E00E94FA2380E067E00E94652789EAE0
:1019C00092E060E00E94FA2384E762E00E946527CB
:1019D0008091C904882361F480E260E00E94C22300
:1019E0001C3010F080E501C081E460E00E94C22359
:1019F00006E664C0063651F58091C904882311F4C7
:101A000086E501C082E662E00E9465278D2D60E0D8
:101A10000E94C9048AE360E00E94C2238F2D61E026
:101A20000E94C90480E066E00E9465278FEB92E087
:101A300060E00E94FA2380E067E00E94652785ED60
:101A400092E060E00E94FA2307E638C08091C90462
:101A5000882311F488E601C084E762E00E946527CC
:101A60008F2D60E00E94C90480E066E00E94652737
:101A700080E492E060E00E94FA2380E067E00E9448
:101A8000652786E592E060E00E94FA231093C70480
:101A9000D092D004F092DA048091DA046091D004FC
:101AA0004091C7040091CF04E090D904C090CA04CB
:101AB00020E00E94E0040E948F1303E08091620402
:101AC0008150809362048091640482FD04C08091FF
:101AD000650482FF02CF10926404809162048F5FDC
:101AE00080936204053649F5812F90E0019668E104
:101AF00070E00E947535182F8093C70484E462E07B
:101B00000E946527812F61E00E94BC0984E762E0A2
:101B10000E9465278091C9048823E9F580E260E08E
:101B20000E94C2238091C7048C3010F080E501C070
:101B300081E461E00E94C2232EC00636A1F48D2DFF
:101B400090E001966CE370E00E947535D82E80918C
:101B5000C904882311F486E501C082E662E00E9490
:101B600065278D2D15C00736B1F48F2D90E00196B5
:101B70006CE370E00E947535F82E8091C9048823CB
:101B800011F488E601C084E762E00E9465278F2D8A
:101B900061E00E94C90480916204815080936204D4
:101BA0008091650482FF99CE80ED97E0FE01319728
:101BB000F1F70197D9F791CEDF91CF911F910F9156
:101BC000FF90EF90DF90CF90BF9008950F931F93F9
:101BD000CF93DF930E94BF0B809162048F5F80934D
:101BE000620480E06BE047E00E949A078091620403
:101BF0008150809362048AE08093610414E00AE0DB
:101C0000C8ECD0E08091640480FDDBC08091640466
:101C1000882321F480916504882319F000936104DE
:101C200007C080916104882319F41092D604C9C0BA
:101C30008091640481FF74C01092640480916204F6
:101C40008F5F809362041430C9F48091D40461E002
:101C50000E94770980E066E00E94652787E692E0AF
:101C600060E00E94FA2380E067E00E9465278DE72C
:101C700092E060E00E94FA2315E64DC0153631F57A
:101C800080E561E00E9465278091D40460E00E94B5
:101C9000770982E661E00E9465278091CB0461E0CC
:101CA0000E94C90480E066E00E94652783E992E013
:101CB00060E00E94FA2380E067E00E94652789EADD
:101CC00092E060E00E94FA2316E625C080E561E01C
:101CD0000E9465278091D40460E00E94770982E623
:101CE00061E00E9465278091CB0460E00E94C904F6
:101CF00080E066E00E94652780E492E060E00E9458
:101D0000FA2380E067E00E94652786E592E060E0C4
:101D10000E94FA2314E0809162048150809362044F
:101D20008091640482FD04C08091650482FF6ACFC3
:101D300010926404809162048F5F80936204153670
:101D4000A1F48091D40490E0019668E170E00E94D3
:101D500075358093D4048091D40461E00E947709A2
:101D60006091D40481E090E019C01636C9F48091E6
:101D7000CB0490E001966CE370E00E94753580938F
:101D8000CB0482E661E00E9465278091CB0461E08C
:101D90000E94C9046091CB0482E090E00E94D33598
:101DA000809162048150809362048091650482FF77
:101DB00029CF80ED97E0FE013197F1F70197D9F730
:101DC00021CFDF91CF911F910F9108950F931F9312
:101DD0000E94BF0B809162048F5F8093620480E059
:101DE00063E247E00E949A078091620481508093E9
:101DF00062048AE08093610418E00AE08091640440
:101E000080FDA8C080916404882321F4809165043A
:101E1000882319F00093610407C08091610488232E
:101E200019F41092D60496C08091640481FF3BC0DF
:101E300010926404809162048F5F80936204183072
:101E4000B9F481E00E94F10980E066E00E94652714
:101E50008BEE92E060E00E94FA2380E067E00E944F
:101E6000652781E093E060E00E94FA2318E616C03F
:101E700080E00E94F10980E066E00E94652780E42E
:101E800092E060E00E94FA2380E067E00E9465270C
:101E900087E193E060E00E94FA2318E080916204F9
:101EA0008150809362048091640482FD04C080911B
:101EB000650482FFA3CF10926404183609F09ECF08
:101EC0008091C904882359F08091D3048F5F809357
:101ED000D3048091D304863010F01092D304809103
:101EE000C90490E0882309F491E09093C90480919B
:101EF00062048F5F809362040E94BF0B80E066E003
:101F00000E9465278BEE92E060E00E94FA2380E059
:101F100067E00E94652781E093E060E00E94FA2379
:101F200080E063E247E00E949A0781E00E94F109A5
:101F3000809162048150809362046091D30485E0B3
:101F400090E00E94D3356091C90486E090E00E9441
:101F5000D33554CF1F910F9108951F930E94BF0B4B
:101F6000809162048F5F8093620480E066E00E944B
:101F700065278DE293E060E00E94FA2380E06BE247
:101F800047E00E949A078091620481508093620426
:101F90008AE0809361041AE08091640480FD41C06E
:101FA00080916404882321F480916504882319F0CA
:101FB0001093610407C080916104882319F4109282
:101FC000D6042FC08091640481FF20C01092640465
:101FD0000E94072B0E94BF0B809162048F5F809349
:101FE000620480E066E00E9465278DE293E060E095
:101FF0000E94FA2380E06BE247E00E949A078091FA
:10200000620481508093620410936104809164049F
:1020100082FD04C08091650482FFBECF10926404EB
:10202000BBCF1F910895BF92CF92DF92EF92FF92A4
:102030000F931F93CF93DF93F090CF041091D904A7
:10204000D090CA040E94BF0B809162048F5F80937E
:10205000620480E06BE147E00E949A07809162048D
:102060008150809362048AE08093610405E04AE035
:10207000B42EC8ECD0E08091640480FD89C18091C9
:102080006404882321F480916504882319F0B092B8
:10209000610407C080916104882319F41092D6046A
:1020A00077C18091640481FFE1C010926404809143
:1020B00062048F5F809362040530F1F48091D30451
:1020C000882309F451C08091D304823009F44CC0B4
:1020D0008091D304843009F447C08091D3048530C3
:1020E00009F442C08091D3048130C9F08091D304B7
:1020F000833009F086C013C00B3059F58091D304AA
:10210000882369F08091D304823049F08091D30410
:10211000843029F08091D304853009F050C0812F9C
:102120006F2D4D2D2CE00E94020B80E066E00E9496
:1021300065278FE693E060E00E94FA2380E067E085
:102140000E94652785E893E060E00E94FA230CE096
:1021500088C00C3009F055C08091D304813021F043
:102160008091D3048330D1F4812F6F2D4D2D2BE03E
:102170000E94020B80E066E00E94652783E493E002
:1021800060E00E94FA2380E067E00E94652789E50D
:1021900093E060E00E94FA230BE063C08091D304D7
:1021A0008823A9F08091D304823089F08091D304F0
:1021B000843069F08091D304853019F508C080918E
:1021C000D304813021F08091D3048330D1F4812F66
:1021D0006F2D4D2D2DE00E94020B80E066E00E94E5
:1021E00065278BE993E060E00E94FA2380E067E0D6
:1021F0000E94652781EB93E060E00E94FA230DE0E6
:1022000030C0812F6F2D4D2D25E00E94020B80E004
:1022100066E00E94652780E492E060E00E94FA2375
:1022200080E067E00E94652786E592E060E00E941A
:10223000FA23D092CA041093D904F092CF0480916B
:10224000DA046091D0044091C7040091CF04E0907B
:10225000D904C090CA0420E00E94E0040E948F13B9
:1022600005E080916204815080936204809164044F
:1022700082FD04C08091650482FFFDCE109264044B
:10228000809162048F5F809362040B3089F51F5F39
:102290001D3010F011E027C01230C1F48D2D90E0F8
:1022A0000E946704882331F08DE18F1518F43DE119
:1022B000F32E19C08D2D90E00E946704882399F4B5
:1022C0008CE18F1580F42CE1F22E0DC0143031F02A
:1022D000163021F0193011F01B3029F48EE18F15E2
:1022E00010F49EE1F92E812F6F2D4D2D2BE03DC076
:1022F0000C3069F5F3948FE18F1510F4FF24F394FB
:10230000123099F48D2D90E00E946704882319F013
:102310008DE18F15A8F08D2D90E00E946704882331
:1023200089F48CE18F1560F00DC0143031F0163057
:1023300021F0193011F01B3029F48FE1F81611F457
:10234000FF24F394812F6F2D4D2D2CE00EC00D3006
:1023500071F48D2D90E0019664E670E00E94753571
:10236000D82E812F6F2D4D2D2DE00E94020B8091D4
:1023700062048150809362048091650482FF7BCE69
:1023800080ED97E0FE013197F1F70197D9F773CE11
:10239000DF91CF911F910F91FF90EF90DF90CF9041
:1023A000BF90089526982E9A81E080936800EBE60E
:1023B000F0E080818064808382E080937C001092D2
:1023C0007B00EAE7F0E08EE8808380818064808390
:1023D000089580917A00877F80937A0080917A00B7
:1023E000806480937A0080917A0084FFFCCF2091F2
:1023F000780030917900C90108951F920F920FB6AD
:102400000F9211242F933F934F935F936F937F937A
:102410008F939F93AF93BF93EF93FF9378948091A3
:1024200078009091790022E0803E920728F0109287
:1024300065041092630473C022E08336920798F11A
:102440008091630482FD6BC080E29EE40197F1F706
:102450000E94E911825692408E37910508F05FC0C4
:1024600082E08093660412C00E94E9118256924075
:102470008E37910558F0809163048B7F80936304BD
:102480008091640484608093640449C080916604F0
:10249000882351F780916304846080936304809162
:1024A000650484603AC08F509140E8F080916304E5
:1024B00081FD10C080E29EE40197F1F70E94E911CE
:1024C0008E5091408555914050F580916404826012
:1024D000809364048091630482608093630480919C
:1024E000650482601AC08091630480FD0EC080E2A2
:1024F0009EE40197F1F70E94E9118F50914078F422
:10250000809164048160809364048091630481609D
:102510008093630480916504816080936504809159
:102520007A00886480937A00FF91EF91BF91AF9118
:102530009F918F917F916F915F914F913F912F91DB
:102540000F900FBE0F901F9018951F920F920FB60D
:102550000F9211242F933F934F935F936F937F9329
:102560008F939F93AF93BF93EF93FF9378940E94C1
:102570009E04FF91EF91BF91AF919F918F917F91B9
:102580006F915F914F913F912F910F900FBE0F90E0
:102590001F9018952F923F924F925F926F927F9269
:1025A0008F929F92AF92BF92CF92DF92EF92FF9263
:1025B0000F931F932090690430906A0440906B043D
:1025C00050906C0460906D0470906E0480906F0465
:1025D00090907004AA24BB246501F501E370F070AB
:1025E000EE0FFF1FEE0FFF1FEC50FB4FE080F1805E
:1025F00002811381EA0CFB1C0C1D1D1DD401C301BB
:1026000075E0B695A795979587957A95D1F7A4012A
:10261000930164E0220F331F441F551F6A95D1F7C1
:1026200082279327A427B527860D971DA81DB91DBE
:10263000E826F9260A271B272E0C3F1C401E511E98
:1026400089EB99E7A7E3BEE9A80EB91ECA1EDB1EF7
:10265000A2019101F5E05695479537952795FA9592
:10266000D1F7D201C101E4E0880F991FAA1FBB1F57
:10267000EA95D1F7282739274A275B27220D331DF2
:10268000441D551DD601C5017BE0B695A7959795CC
:1026900087957A95D1F783709070880F991F880F6E
:1026A000991F8C509B4FFC0180819181A281B38145
:1026B0008A0D9B1DAC1DBD1D282739274A275B2786
:1026C000620E731E841E951EF0E2AF16F7E3BF067E
:1026D000FFEECF06F6ECDF0609F07FCF209269040B
:1026E00030926A0440926B0450926C0460926D04C4
:1026F00070926E0480926F04909270041F910F91FB
:10270000FF90EF90DF90CF90BF90AF909F908F9011
:102710007F906F905F904F903F902F900895EF9231
:10272000FF920F931F938EE691E7A9EEBDE280938F
:10273000F4049093F504A093F604B093F70481EDAC
:102740009DEDAFE3B9E98093F8049093F904A09369
:10275000FA04B093FB0487E59BEFA7E7BAE2809306
:10276000FC049093FD04A093FE04B093FF0480EB5F
:1027700096EEA2E7B1EB8093000590930105A0933C
:102780000205B09303051092690410926A04109236
:102790006B0410926C0410926D0410926E041092EF
:1027A0006F04109270040E94CA12E090D404FF24B7
:1027B00000E010E0102F0F2DFE2CEE248091C704B6
:1027C00090E0A0E0B0E0E82AF92A0A2B1B2B102F9A
:1027D0000F2DFE2CEE248091D00490E0A0E0B0E01C
:1027E000E82AF92A0A2B1B2B102F0F2DFE2CEE2482
:1027F0008091DA0490E0A0E0B0E0E82AF92A0A2B00
:102800001B2B80916D0490916E04A0916F04B09188
:102810007004880F991FAA1FBB1F2091F4043091E8
:10282000F5044091F6045091F70482279327A427DA
:10283000B5278093F4049093F504A093F604B09325
:10284000F7040E94CA12D801C701880F991FAA1F56
:10285000BB1F2091F8043091F9044091FA04509183
:10286000FB0482279327A427B5278093F80490932D
:10287000F904A093FA04B093FB040E94CA121695BF
:102880000795F794E7948091FC049091FD04A09142
:10289000FE04B091FF04E826F9260A271B27E092E0
:1028A000FC04F092FD040093FE041093FF040E94C8
:1028B000CA1280916D0490916E04A0916F04B09142
:1028C0007004B695A795979587952091000530914E
:1028D0000105409102055091030582279327A42703
:1028E000B5278093000590930105A0930205B0934E
:1028F00003050E94CA12E090CB04FF2400E010E020
:10290000102F0F2DFE2CEE248091D90490E0A0E032
:10291000B0E0E82AF92A0A2B1B2B102F0F2DFE2CD2
:10292000EE248091CF0490E0A0E0B0E0E82AF92AFC
:102930000A2B1B2B102F0F2DFE2CEE248091CA0486
:1029400090E0A0E0B0E0E82AF92A0A2B1B2BD8017E
:10295000C701880F991FAA1FBB1F2091F404309153
:10296000F5044091F6045091F70482279327A42799
:10297000B5278093F4049093F504A093F604B093E4
:10298000F7040E94CA128091690490916A04A09190
:102990006B04B0916C04880F991FAA1FBB1F209174
:1029A000F8043091F9044091FA045091FB04822715
:1029B0009327A427B5278093F8049093F904A09354
:1029C000FA04B093FB040E94CA12809169049091AA
:1029D0006A04A0916B04B0916C04B695A795979585
:1029E00087952091FC043091FD044091FE045091A4
:1029F000FF0482279327A427B5278093FC04909394
:102A0000FD04A093FE04B093FF040E94CA12169521
:102A10000795F794E7948091000590910105A091A6
:102A20000205B0910305E826F9260A271B27E09244
:102A30000005F09201050093020510930305109222
:102A4000690410926A0410926B0410926C04109244
:102A50006D0410926E0410926F04109270040E9424
:102A6000CA121F910F91FF90EF900895982F8150F7
:102A7000823078F0A8950E94CA1220916D0430919E
:102A80006E048091690490916A04282739273F7762
:102A900043C09130F9F480916D0490916E04A0913F
:102AA0006F04B09170042091690430916A044091E0
:102AB0006B0450916C0482279327A427B527EFE07D
:102AC000B695A79597958795EA95D1F79C012370C0
:102AD000307022C09230F9F480916D0490916E04B0
:102AE000A0916F04B09170042091690430916A0440
:102AF00040916B0450916C0482279327A427B5273B
:102B000071E1B695A795979587957A95D1F79C0130
:102B10002170307001C00895C901089590915A0440
:102B200080916804981739F081E080936704809160
:102B30005A048093680480915A04823009F448C092
:102B4000833030F4882359F0813009F051C02AC015
:102B5000833009F445C0853009F04AC02FC0809108
:102B6000D5048823C1F080915704882321F48091F3
:102B70005804882381F080915804882329F080919B
:102B8000D10480930A0504C080915704882381F101
:102B90008091C80422C08091C70480930A05809167
:102BA000D0041BC08091D304882321F08091D304EA
:102BB000823039F48091D90480930A058091CF0442
:102BC0000CC08091CF0480930A058091D90405C080
:102BD00084E180930A058091CA0480930B050895CF
:102BE0008091D40480930A058091CB0480930B05D7
:102BF0000895AF92CF92EF920F93A82FB0E0E02FFD
:102C0000F0E0CD01840F911D8E179F07B4F0EC0DFD
:102C1000F11DEA17FB078CF070E04E2D50E0CB0160
:102C2000820F911D8417950744F080E04A0D511DD5
:102C3000461757071CF081E001C080E00F91EF902C
:102C4000CF90AF900895CF93DF93C82FD0E0E42FBB
:102C5000F0E0E053F84F833010F42C963197262F94
:102C600030E02F5F3F4F2E0F3F1FCE01880F991F7F
:102C7000280F391FCF019695879596958795280F30
:102C8000391FCF0160E971E00E946135260F371FBF
:102C9000CF0164E670E00E946135261B370BAE0160
:102CA0004F5F5F4FCA01880F991F840F951F880FD0
:102CB000991F6AE070E00E946135C901860F971F75
:102CC00067E070E00E946135DF91CF910895EF9247
:102CD000FF920F931F9380E00E943615A0E0B0E0B2
:102CE000BC01CD010E94C73220E030E048E452E44C
:102CF0000E94613420E03EEF4FEF56E40E942E32F6
:102D000020E030E040EA51E40E9471317B018C0107
:102D100081E00E94361583702AE5829FC00111244C
:102D2000AA2797FDA095BA2FBC01CD010E94C932F8
:102D30009B01AC01C801B7010E94713126E53EE05C
:102D400049E450E40E94613420E030E044E353E47D
:102D50000E942E321F910F91FF90EF9008952F92B5
:102D60003F924F925F926F927F928F929F92AF921B
:102D7000BF92CF92DF92EF92FF920F931F93DF9358
:102D8000CF93CDB7DEB761970FB6F894DEBF0FBE15
:102D9000CDBFEC86FD860E871F87998A888A2D8392
:102DA0003E834F835887AC01CB01DA013C014D01D2
:102DB000C501D6015C016D011A8619869FC06D811F
:102DC0007E818F819885A60195010E9471311B013A
:102DD0002C01C401B3012C853D854E855F850E9481
:102DE000713169837A838B839C83C201B10120E0B6
:102DF00030E048E652E40E94563418167CF4D7FAC4
:102E0000D094D7F8D0940F2EF0E02F2EF0E03F2E84
:102E1000F8E64F2EF2E45F2EF02D18C0C201B1018A
:102E200020E030E040E050E40E942732882374F430
:102E3000D7FAD094D7F8D0940F2EF0E02F2EF0E0F0
:102E40003F2EF0E04F2EF0E45F2EF02D69817A8165
:102E50008B819C810E9496326B876F368CF0C80103
:102E6000B70120E030E046EE52E40E94273288238A
:102E70003CF460E070E086EE92E4A801970113C094
:102E8000FB85FE3054F5C401B30120E030E040E59D
:102E900051E40E945634181604F560E070E080E5B5
:102EA00091E4A40193010E9470312C853D854E85EB
:102EB0005F850E942E32A60195010E9461349B011C
:102EC000AC016D817E818F8198850E9471310E9455
:102ED0009B32E889F989608307C0F985FF2321F4D3
:102EE0008A858F5F8A8702C0E1E0E9872D823E8272
:102EF0004F82588669807A808B809C80C401B301A0
:102F000020E030E04CEE52E40E94273288239CF40B
:102F1000C401B30120E030E040E850E40E94713188
:102F20007B018C0120E030E040E251E40E94563405
:102F300018160CF444CF6D817E818F8198850E9494
:102F40009B32EEA1FFA160838A8561960FB6F8944B
:102F5000DEBF0FBECDBFCF91DF911F910F91FF90CC
:102F6000EF90DF90CF90BF90AF909F908F907F9029
:102F70006F905F904F903F902F9008957F928F9227
:102F80009F92AF92BF92CF92DF92EF92FF920F93F8
:102F90001F93CF93DF93D82E762EC22E85E0489FC5
:102FA000A001112472E7E72E70E0F72EE40EF51E63
:102FB00067E7862E60E0962E840E951EF7018491B9
:102FC000172DC0E0D0E0A82EBB24C5010C2E02C0F6
:102FD000959587950A94E2F780FF09C000E0CC2020
:102FE00009F401E08D2D612F42E022E005C08D2D16
:102FF000612F42E022E00C2D0E940B2421961E5FDF
:10300000C730D10511F70894E11CF11CF2E0DF0E86
:10301000E814F90499F6DF91CF911F910F91FF9079
:10302000EF90DF90CF90BF90AF909F908F907F9068
:1030300008957F928F929F92AF92BF92CF92DF922C
:10304000EF92FF920F931F93CF93DF93D82E762E9C
:10305000C22E50E0440F551F440F551FF2EFEF2EC4
:10306000F2E0FF2EE40EF51EE6EF8E2EE2E09E2E3D
:10307000840E951EF7018491172DC7E0D0E0A82E8D
:10308000BB24C5010C2E02C0959587950A94E2F7E2
:1030900080FF09C000E0CC2009F401E08D2D612FF4
:1030A00042E022E005C08D2D612F42E022E00C2D90
:1030B0000E940B2421971E5FFFEFCF3FDF0709F728
:1030C0000894E11CF11C82E0D80EE814F90491F692
:1030D000DF91CF911F910F91FF90EF90DF90CF90F4
:1030E000BF90AF909F908F907F900895CF92DF9286
:1030F000EF92FF920F931F93C82ED62E80915A0401
:10310000843009F0E9C0809171048430C9F18EE106
:1031100064E04AE02D2D0E9419188DE264E04AE037
:103120002D2D0E94191886E464E04AE02D2D0E949E
:10313000191885E564E04AE02D2D0E941918609168
:10314000F0047091F1048091F2049091F3040E94D4
:103150009B32162F6091E3047091E4048091E504A2
:103160009091E6040E949B3200E0DD2009F401E02A
:10317000812F44E024E00E940B2484E080937104BA
:10318000CC2009F5E0900605F090070500910805B0
:10319000109109056091EC047091ED048091EE04AA
:1031A0009091EF040E949B3270E06F31710514F131
:1031B0006E327105FCF4C801B7010E949B3270E0C9
:1031C00065317105BCF48091D9046091CF044091C0
:1031D000CA040E94231693E0899FF0011124E25E45
:1031E000FC4FE49183E264E04E2F2D2D0E94BE1728
:1031F000CC2009F5E0900605F09007050091080540
:10320000109109056091EC047091ED048091EE0439
:103210009091EF040E949B3270E06E32710514F1C0
:103220006D337105FCF4C801B7010E949B3270E058
:1032300065317105BCF48091D9046091CF0440914F
:10324000CA040E94231693E0899FF0011124E15ED5
:10325000FC4FE49182E364E04E2F2D2D0E94BE17B7
:10326000CC2021F5E0900605F090070500910805B7
:10327000109109056091EC047091ED048091EE04C9
:103280009091EF040E949B3270E0623471050CF45F
:103290007FC2613571050CF07BC2C801B7010E9485
:1032A0009B3270E0653171050CF072C28091D904D7
:1032B0006091CF044091CA040E94231693E0899F35
:1032C000F0011124E05EFC4FE49186E464E04E2FAF
:1032D0002D2D0E94BE175CC280915A0490917104FA
:1032E000853009F0EEC0953009F451C0943091F466
:1032F00083E264E040E22D2D0E94BE1782E364E089
:1033000040E22D2D0E94BE1786E464E040E22D2DA0
:103310000E94BE17809171048823C1F48EE164E09D
:103320004AE02D2D0E9419188DE264E04AE02D2D0F
:103330000E94191886E464E04AE02D2D0E941918B5
:1033400085E564E04AE02D2D0E9419186091F00493
:103350007091F1048091F2049091F3040E949B32E9
:10336000162F6091E3047091E4048091E50490913C
:10337000E6040E949B3200E0DD2009F401E0812F89
:1033800044E024E00E940B2485E080937104CC206B
:1033900009F5E0900605F0900705009108051091E9
:1033A00009056091EC047091ED048091EE04909118
:1033B000EF040E949B3270E060317105E4F06F31E0
:1033C0007105CCF4C801B7010E949B3270E06531F1
:1033D00071058CF4E091D90483E0E89FF001112499
:1033E000ED5CFC4FE49184E164E04E2F2D2D0E94B2
:1033F000BE17CC2009F5E0900605F0900705009176
:103400000805109109056091EC047091ED0480911C
:10341000EE049091EF040E949B3270E06F317105D1
:10342000E4F06E327105CCF4C801B7010E949B3202
:1034300070E0653171058CF4E091D90483E0E89F78
:10344000F0011124EC5CFC4FE49183E264E04E2F28
:103450002D2D0E94BE17CC2021F5E0900605F0909E
:10346000070500910805109109056091EC04709121
:10347000ED048091EE049091EF040E949B3270E085
:103480006E3271050CF42AC16D3371050CF026C142
:10349000C801B7010E949B3270E0653171050CF0E4
:1034A0001DC1E091D90483E0E89FF0011124EB5C99
:1034B000FC4FE49182E364E04E2F2D2D0E94BE1755
:1034C0000BC1892F8450823008F072C09530F1F41E
:1034D00084E164E040E22D2D0E94BE1783E264E0A7
:1034E00040E22D2D0E94BE1782E364E040E22D2DC4
:1034F0000E94BE1786E464E04AE02D2D0E94191850
:1035000085E564E04AE02D2D0E9419188091710430
:10351000843091F483E264E040E22D2D0E94BE17D6
:1035200082E364E040E22D2D0E94BE1786E464E051
:1035300040E22D2D0E94BE17809171048823C1F4B2
:103540008EE164E04AE02D2D0E9419188DE264E0BE
:103550004AE02D2D0E94191886E464E04AE02D2DE2
:103560000E94191885E564E04AE02D2D0E94191883
:103570006091F0047091F1048091F2049091F30451
:103580000E949B32162F6091E3047091E4048091B5
:10359000E5049091E6040E949B3200E0DD2009F4EE
:1035A00001E0812F44E024E00E940B24109271047A
:1035B000CC2009F5E0900605F0900705009108057C
:1035C000109109056091EC047091ED048091EE0476
:1035D0009091EF040E949B3270E06A3171059CF17A
:1035E0006932710584F5C801B7010E949B3270E011
:1035F0006531710544F58091C9048823B9F480913F
:103600005A04882321F080915A04833079F4809100
:103610000A0590E047966CE070E00E9475350196CF
:103620006AE070E00E947535462F06C080910A0559
:103630006AE00E945535482F8EE164E02D2D0E94EE
:103640001918CC2009F5E0900605F09007050091C7
:103650000805109109056091EC047091ED048091CA
:10366000EE049091EF040E949B3270E06932710584
:10367000ACF16833710594F5C801B7010E949B3223
:1036800070E06531710554F58091C9048823C9F44F
:1036900080915A04882321F080915A04833089F460
:1036A00080910A0590E047966CE070E00E947535C5
:1036B00001966AE070E00E947535482F8DE264E063
:1036C00008C080910A056AE00E9455358DE264E0E9
:1036D000492F2D2D0E941918CC2009F5E0900605E0
:1036E000F090070500910805109109056091EC0420
:1036F0007091ED048091EE049091EF040E949B3252
:1037000070E062347105C4F061357105ACF4C80134
:10371000B7010E949B3270E0653171056CF48091B5
:103720000B056AE00E945535482F86E464E02D2D94
:103730000E941918CC2009F5E0900605F0900705C5
:1037400000910805109109056091EC047091ED0459
:103750008091EE049091EF040E949B3270E06135FD
:103760007105B4F0603671059CF4C801B7010E9480
:103770009B3270E0653171055CF480910B056AE065
:103780000E94553585E564E0492F2D2D0E941918BA
:103790001F910F91FF90EF90DF90CF9008950F93BE
:1037A0001F93082F10E08FE3612F0E9465270023ED
:1037B00011F080EF01C08FE00E940C271F5F1730CF
:1037C00091F78FE367E00E946527002311F080E204
:1037D00001C08FEC0E940C271F910F910895BF929A
:1037E000CF92DF92EF92FF920F931F93B82E6091CA
:1037F000EC047091ED048091EE049091EF040E942E
:103800009B327B018C0160910605709107058091C8
:103810000805909109050E949B329B01AC018E2DF9
:10382000622F44E024E00B2D0E940B24CC24BB200B
:1038300011F4CC24C3946091F0047091F104809150
:10384000F2049091F3040E949B327B018C01609101
:10385000E3047091E4048091E5049091E6040E94F1
:103860009B329B01AC018E2D622F44E024E00C2D95
:103870000E940B24E0900605F090070500910805D2
:10388000109109056091EC047091ED048091EE04B3
:103890009091EF040E949B3270E06B33710564F0ED
:1038A000613471054CF4C801B7010E949B3270E08D
:1038B000613471050CF476C06091DC04262F30E091
:1038C0008091DD04992787FD90952817390771F0BD
:1038D0008AE043E02CE00B2D0E940B248AE06091EB
:1038E000DD0443E02CE00C2D0E940B2460910505C3
:1038F000262F30E080910405992787FD90952817A1
:10390000390771F083E743E02CE00B2D0E940B2474
:1039100083E76091040543E02CE00C2D0E940B240A
:10392000E0900605F0900705009108051091090543
:10393000D09004056091EC047091ED048091EE0448
:103940009091EF040E949B3270E06F367105A4F0F5
:10395000673771058CF4C801B7010E949B3270E093
:103960002D2D30E0CB010496821793072CF0245FB5
:103970003F4F26173707D4F41092700080916704E8
:10398000882311F01092670481E0809370006B2D02
:103990000E9476181F910F91FF90EF90DF90CF90CB
:1039A000BF9008958B2D0E94CF1B86CF83E76D2D8E
:1039B00043E02CE00C2D0E940B24DECFFF920F93EE
:1039C0001F93F82E80E060E040E820E40F2D0E9475
:1039D0000B2410E0FF2009F411E080E060E040E8F3
:1039E00022E0012F0E940B2480E06EE340E822E0F9
:1039F0000E940B248AE06091DD0443E02CE00E94E9
:103A00000B2483E76091040543E02CE00E940B2423
:103A10000E948E158091C9048823B9F480915A04BC
:103A2000882321F080915A04833079F480910A052B
:103A300090E047966CE070E00E94753501966AE070
:103A400070E00E947535462F06C080910A056AE035
:103A50000E945535482F8EE164E02F2D0E941918E1
:103A60008091C9048823C9F480915A04882321F0E5
:103A700080915A04833089F480910A0590E047963A
:103A80006CE070E00E94753501966AE070E00E947B
:103A90007535482F8DE264E008C080910A056AE020
:103AA0000E9455358DE264E0492F2F2D0E94191890
:103AB00080910B056AE00E945535482F86E464E04A
:103AC0002F2D0E94191880910B056AE00E94553530
:103AD00085E564E0492F2F2D0E9419188F2D0E9433
:103AE000CF1B1F910F91FF900895EF92FF920F93BC
:103AF0001F9389E18093DD048093040580E090E0CA
:103B0000ACE7B2E48093F0049093F104A093F20444
:103B1000B093F30480E090E0A8EFB1E48093E30475
:103B20009093E404A093E504B093E6040E94671622
:103B30007B018C010E942B3220E030E040EA50E40F
:103B40000E9461346093E7047093E8048093E90471
:103B50009093EA04C801B7010E94C43420E030E029
:103B600040EA50E40E9461346093DF047093E00403
:103B70008093E1049093E2041F910F91FF90EF90E6
:103B800008952F923F924F925F926F927F928F9201
:103B90009F92AF92BF92CF92DF92EF92FF920F93DC
:103BA0001F93DF93CF93CDB7DEB72E970FB6F89460
:103BB000DEBF0FBECDBF6091F0047091F104809123
:103BC000F2049091F3046093EC047093ED048093FD
:103BD000EE049093EF04E090E304F090E40400918D
:103BE000E5041091E604E0920605F09207050093C3
:103BF0000805109309052091E7043091E8044091ED
:103C0000E9045091EA040E9471315B016C016093F8
:103C1000F0047093F1048093F2049093F3046090A5
:103C2000DF047090E0048090E1049090E204C80109
:103C3000B701A40193010E9471316093E304709372
:103C4000E4048093E5049093E60420E030E048E645
:103C500052E40E9456341816BCF480E090E0A8E6C6
:103C6000B2E48093E3049093E404A093E504B0935A
:103C7000E604D401C301B0588093DF049093E004BC
:103C8000A093E104B093E2046091E3047091E40432
:103C90008091E5049091E60420E030E040E050E4BB
:103CA0000E9427328823ECF480E090E0A0E0B0E4AA
:103CB0008093E3049093E404A093E504B093E604B6
:103CC0008091DF049091E004A091E104B091E204BE
:103CD000B0588093DF049093E004A093E104B09384
:103CE000E204C601B50120E030E048EF52E40E9452
:103CF000563418163CF0C601B5010E9496321616CD
:103D00000CF464C080E090E0ACE7B2E48093F0048F
:103D10009093F104A093F204B093F30480E090E058
:103D2000A8EFB1E48093E3049093E404A093E50446
:103D3000B093E6040E9467167B018C010E942B322F
:103D400020E030E040EA50E40E9461346093E704F0
:103D50007093E8048093E9049093EA04C801B701E2
:103D60000E94C43420E030E040EA50E40E94613414
:103D70006093DF047093E0048093E1049093E20485
:103D80006091780420917704261B8AE043E000E0EC
:103D90000E940B2460917C0420917B04261B83E706
:103DA00043E00E940B2410927B0410927C0410923A
:103DB00077041092780481E080936704109258048D
:103DC00080915804809357040E948E158091DD04E1
:103DD0008E838093DC04909104059D839093050568
:103DE0002090E7043090E8044090E9045090EA0401
:103DF000C201B10120E030E040E050E00E945634C2
:103E000018160CF038C16091F0047091F1048091A3
:103E1000F2049091F3040E9496326F360CF467C05E
:103E2000E090EC04F090ED040091EE041091EF04AA
:103E3000C801B7010E94963260370CF058C0C80123
:103E4000B70120E030E040E850E40E9471319B016E
:103E5000AC0160E070E086EE92E40E9470315B019C
:103E60006C016090DF047090E0048090E104909019
:103E7000E204C801B701A60195010E9471316F8368
:103E8000788789879A87E0900605F090070500916A
:103E90000805109109050E949B3270E06F3671058C
:103EA00034F1673771051CF5C601B501A201910116
:103EB0000E942E32A40193010E9461349B01AC0147
:103EC000C801B7010E9471317B018C010E949B32B5
:103ED00070E0AD812A2F30E0CB0104968217930762
:103EE00034F0245F3F4F261737070CF02CC2E090C8
:103EF000E704F090E8040091E9041091EA04C80195
:103F0000B70120E030E040E050E00E94563418163F
:103F10000CF0FBC16090F0047090F1048090F2040A
:103F20009090F304C401B30120E030E040E850E495
:103F30000E94713120E030E046EE52E40E942732C8
:103F400088230CF0E2C180917C04882309F05DC0D5
:103F500000D02091E3043091E4044091E5045091B5
:103F6000E604A090DF04B090E004C090E104D0909B
:103F7000E20489E794E0EDB7FEB792838183C40140
:103F8000B301EAE78E2EE4E09E2E0E94AF168093E6
:103F9000720490917A04809179040F900F908917A0
:103FA00038F480937C049C5F90937B04945005C00C
:103FB00090937C048C5F80937B04809158048823C9
:103FC00079F4892F845080937404992787FD909504
:103FD0000E94B0228AE593E061E00E943C221AC070
:103FE00000917C0410917B040F3058F0113328F4B9
:103FF00082E00E94361580FF04C00D5000937404C7
:1040000009C01F5F1093740405C080917204815031
:10401000809372043091040560917404832F861B91
:10402000482F552747FD509557FF03C050954195A0
:104030005F4F8091720425E08202C0011124049731
:10404000481759070CF461C1842F36173CF44630E9
:1040500014F03B5F01C0340F3093040590910405C8
:1040600069170CF052C1863014F0955001C0981BAE
:10407000909304054AC18091F0049091F104A091BD
:10408000F204B091F30489839A83AB83BC83BC01AF
:10409000CD010E9496326E300CF07DC0E090EC04B1
:1040A000F090ED040091EE041091EF04C801B70107
:1040B0000E9496326D300CF46EC060E070E080E5D6
:1040C00091E4A80197010E9470315B016C0160903E
:1040D000DF047090E0048090E1049090E204C80155
:1040E000B701A60195010E9471316B877C878D878E
:1040F0009E87E0900605F090070500910805109155
:1041000009050E949B3270E0663071050CF443C0D3
:104110006E3071050CF03FC0C601B501A2019101DE
:104120000E942E32A40193010E9461349B01AC01D4
:10413000C801B7010E9471317B018C010E949B3242
:1041400070E09E81292F30E0CB01049682179307FF
:1041500014F1245F3F4F26173707ECF024C18B85FD
:104160009C85AD85BE858093F0049093F104A09367
:10417000F204B093F304E092E304F092E4040093B9
:10418000E5041093E60410927704109278041092DC
:10419000730410927604E090E704F090E804009134
:1041A000E9041091EA04C801B70120E030E040E0E2
:1041B00050E00E94273288230CF0A7C06090F004E2
:1041C0007090F1048090F2049090F304C401B30164
:1041D00020E030E040E651E40E94563418160CF01E
:1041E00094C080917804882309F054C000D02091B5
:1041F000E3043091E4044091E5045091E604A0907A
:10420000DF04B090E004C090E104D090E20485E7C0
:1042100094E0ADB7BEB712969C938E931197C401EC
:10422000B301B6E78B2EB4E09B2E0E94AF168093AD
:10423000720490917604809175040F900F90891705
:1042400038F4809378049C5F90937704945005C071
:10425000909378048C5F809377048091570488232F
:1042600021F49450909373041AC000917804109133
:1042700077040F3058F0113328F482E00E9436158D
:1042800080FF04C00D500093730409C01F5F10939A
:10429000730405C080917204815080937204409130
:1042A000DD0460917304242F332727FD3095862F7A
:1042B000992787FD9095281B390B37FF03C0309550
:1042C00021953F4F522F8091720425E08202C00158
:1042D00011240497252F332727FD309528173907F8
:1042E000A4F046173CF4563014F04B5F01C0450F64
:1042F0004093DD048091DD0468173CF4563014F0DF
:10430000855001C0851B8093DD048091DD048330DE
:104310001CF483E08093DD048091040583301CF459
:1043200083E0809304058091DD0482331CF081E3F7
:104330008093DD048091040582330CF449C081E34D
:104340008093040545C08F819885A985BA8580939F
:10435000F0049093F104A093F204B093F304E0927C
:10436000E304F092E4040093E5041093E604D20120
:10437000C101B0588093E7049093E804A093E90446
:10438000B093EA0410927B0410927C04109274049F
:1043900010927A04109277041092780410927304A9
:1043A00010927604A4CDD201C101B0588093E704E5
:1043B0009093E804A093E904B093EA0469817A81B8
:1043C0008B819C810E949B326D3009F0C8CEDBCE80
:1043D0002E960FB6F894DEBF0FBECDBFCF91DF9102
:1043E0001F910F91FF90EF90DF90CF90BF90AF9013
:1043F0009F908F907F906F905F904F903F902F9005
:1044000008959093C5008093C40088E18093C10013
:104410008EE08093C200519A5098089506C090E0B3
:1044200000009F5F9E31E1F781508823C1F7089516
:1044300048EC50E009C020E137E2FA013197F1F78A
:1044400021503040D1F781508823A9F70895982F43
:104450008091C00085FFFCCF9093C60080E090E083
:1044600008958091C00087FFFCCF8091C600089519
:104470008091C00080780895AC0120E007C0809151
:10448000C00085FFFCCF3093C6002F5FFA01E20F1A
:10449000F11D3491332399F7662371F08091C000A8
:1044A00085FFFCCF8AE08093C6008091C00085FF25
:1044B000FCCF8DE08093C6000895FC0107C0809179
:1044C000C00085FFFCCF31969093C6009081992360
:1044D000B1F70895282F982F92959F709A3030F455
:1044E0008091C00085FFFCCF905D05C08091C00029
:1044F00085FFFCCF995A9093C600822F90E08F7071
:1045000090700A973CF48091C00085FFFCCF2F701B
:10451000205D06C08091C00085FFFCCF2F70295A16
:104520002093C60008951F93182F892F0E946A2296
:10453000812F0E946A221F910895EF92FF920F939C
:104540001F937B018C01C801AA27BB270E949322DD
:10455000C7010E9493221F910F91FF90EF90089541
:104560000F931F93CF93DF938C01E0E1F7E240E0DC
:10457000C0E0D0E0C801BF010E946135262F66234C
:1045800029F4442319F4E130F10549F48091C00085
:1045900085FFFCCF205D2093C600205341E0CF0172
:1045A0006AE070E00E9461352196C530D10571F056
:1045B000822F90E09C012E9FC0012F9F900D3E9F67
:1045C000900D1124081B190BFB01D4CFDF91CF9163
:1045D0001F910F9108951F93CF93DF93482F87FF6B
:1045E00008C08091C00085FFFCCF8DE28093C6009B
:1045F0004195E4E6F0E010E0C0E0D0E0842F992798
:1046000087FD9095BF010E946135262F16162CF06C
:10461000112319F4E130F10549F48091C00085FFC0
:10462000FCCF205D2093C600205311E0CF016AE04B
:1046300070E00E9461352196C330D10531F02E9F84
:10464000802D1124481BFB01D9CFDF91CF911F9101
:1046500008954F925F926F927F928F929F92AF9246
:10466000BF92CF92DF92EF92FF920F931F93CF935F
:10467000DF934B015C01E12C9AECF92E9AE9092FAA
:104680009BE3192F4424C0E0D0E0C501B401A80188
:1046900097010E948835D22E222341F4442031F420
:1046A00081E0E816F1040105110561F48091C00074
:1046B00085FFFCCF80E3D80ED092C60080EDD80EE7
:1046C00044244394C801B7012AE030E040E050E0C0
:1046D0000E948835C22E732E642E552E2196CA3024
:1046E000D105A9F06D2D70E080E090E0A801970160
:1046F0000E943635861A970AA80AB90A2C2D372D3A
:10470000462D552DC901DA017C018D01BECFDF9107
:10471000CF911F910F91FF90EF90DF90CF90BF90BE
:10472000AF909F908F907F906F905F904F90089583
:1047300008950F931F93CF93DF93482F30E020E02D
:1047400007C0855A9C4FFC0184918F5F280F3F5F03
:10475000822F90E03417A8F3FC01E55AFC4F049136
:10476000EC01C45ADC4F10E006C0FE0184910E94A7
:104770000C271F5F21961017C0F3DF91CF911F9177
:104780000F910895DF92EF92FF920F931F93CF93B3
:10479000DF93D62E95E0899FC0011124EC01C2530E
:1047A000DD4F8E0123EDE22E22E0F22EE80EF91EFF
:1047B000DD2021F0FE018491809502C0F8018491F2
:1047C0000E940C2721960F5F1F4FCE15DF0581F742
:1047D000DD2011F08FEF01C080E00E940C2780E007
:1047E0000E945827DF91CF911F910F91FF90EF907A
:1047F000DF9008951F93CF93DF93EC01162F04C031
:10480000612F0E94C223219688818823C9F7DF91F6
:10481000CF911F9108952F923F924F925F926F9286
:104820007F928F929F92AF92BF92CF92DF92EF9240
:10483000FF920F931F93CF93DF93282E162F342EC2
:10484000F22E402EC62FD0E0C770D070209709F40A
:104850005BC0562E569456945694EE2467E0C62EAE
:10486000C1228C2C992487FC90945E01A20EB11C6D
:1048700051E0652E712C35C0DE2CD20C8D2D652DAE
:104880000E9465270E94BF260E94BF26082F40E095
:1048900050E015C081E0481641F4C30102C0880F02
:1048A000991F2A95E2F7082B08C0C30102C0880FA0
:1048B000991F2A95E2F7809508234F5F5F4F9A0171
:1048C000280D391D2A153B0524F48C2D840F8830C2
:1048D00009F78D2D652D0E946527802F0E940C27DA
:1048E000E394E31448F22F2D30E088E090E08C1B35
:1048F0009D0B8217930714F0FF2404C0812F87704B
:104900008850F80E187F185FE12EE694E694E6943E
:10491000C12FD0E0CF0DD11D43E0D595C7954A9565
:10492000E1F712C0822D6E2D0E94652710E009C0AC
:1049300081E0481611F48FEF01C080E00E940C273F
:104940001F5F1315A8F3E3948E2D90E08C179D073D
:104950004CF32F2D2770C9F100E0C22FD0E031E0D9
:10496000A32EB12C30C0F02EF20C8F2D6E2D0E9494
:1049700065270E94BF260E94BF26182F20E030E046
:1049800017C081E0481649F4C501022E02C0880F05
:10499000991F0A94E2F7182B09C0C501022E02C024
:1049A000880F991F0A94E2F7809518232F5F3F4FD5
:1049B0002C173D0734F38F2D6E2D0E946527812F14
:1049C0000E940C270F5F031570F280E00E945827A9
:1049D000DF91CF911F910F91FF90EF90DF90CF90DB
:1049E000BF90AF909F908F907F906F905F904F900F
:1049F0003F902F900895DF92EF92FF920F931F93B5
:104A0000F82E162FD42EE22E41E001E00E940B2456
:104A10008F2D81508D0D612F41E02E2D0E940B2492
:104A20008F2D612F4D2D21E00E940B2411501E0D62
:104A30008F2D612F4D2D21E00E940B241F910F918E
:104A4000FF90EF90DF900895EF92FF920F931F93E6
:104A5000F82E162F062F069506950695602F0E94B4
:104A600065270E94BF260E94BF26E82E8F2D602F4B
:104A70000E946527177081E090E002C0880F991F9F
:104A80001A95E2F780958E210E940C2780E00E9403
:104A900058271F910F91FF90EF900895EF92FF928A
:104AA0000F931F93F82E162F062F06950695069541
:104AB000602F0E9465270E94BF260E94BF26E82E15
:104AC0008F2D602F0E946527177081E090E002C053
:104AD000880F991F1A95E2F78E290E940C2780E013
:104AE0000E9458271F910F91FF90EF9008953F92D9
:104AF0004F925F926F927F928F929F92AF92BF92EE
:104B0000CF92DF92EF92FF920F931F93CF93DF9399
:104B1000D82EC62E322E462E481AE42EFF24C70168
:104B2000880F991FCC27DD27C81BD90B23965D2C36
:104B3000662E762EAA24BB248824992481E0381678
:104B400041F50E2D0C0D8D2D602F0E944E259C2DB4
:104B50009E19192F8D2D692F0E944E25852D602FAE
:104B60000E944E25852D612F0E944E250419802F0D
:104B7000662D0E944E25802F672D0E944E25141908
:104B8000812F662D0E944E25812F672D0E944E2574
:104B900027C00E2D0C0D8D2D602F0E9424258C2DED
:104BA0008E19182F8D2D612F0E942425852D602FA1
:104BB0000E942425852D612F0E9424250419802F11
:104BC000662D0E942425802F672D0E94242514190C
:104BD000812F662D0E942425812F672D0E94242578
:104BE000D7FF04C02696C80DD91D0DC02A96C50151
:104BF0008E199F09880F991F880F991FC80FD91FF9
:104C00000894E108F1080894A11CB11C84E090E02C
:104C1000880E991ED3945A9463947A94EA14FB04F0
:104C20000CF08CCFDF91CF911F910F91FF90EF90FF
:104C3000DF90CF90BF90AF909F908F907F906F90BC
:104C40005F904F903F9008952F982D982C98409802
:104C50005A98279A259A249A389A529A8BB18F702B
:104C60008BB985B1807F85B98AB1806F8AB984B1EB
:104C70008F6084B9089540985A98882319F081303C
:104C800021F402C0409A08955A9A0895F8940E9417
:104C90003B268BB1806F8BB985B18F6085B92F981A
:104CA0008AB18F708AB984B1807F84B92D9A2C9A89
:104CB000000000000AC02C98000000000000000066
:104CC0002C9A000000000000000089B193B187FD1C
:104CD000F2CF2C982D988AB1806F8AB984B18F60F9
:104CE00084B9789408951F93162FF8940E9446264D
:104CF0002F982D982C9A8AB1806F8AB984B18F60D1
:104D000084B98BB18F708BB99BB1812F807F892B38
:104D10008BB985B1807F85B985B11F70812B85B92D
:104D20000000000000000000000000000000000083
:104D30002C9878941F910895F8940E9446262F98F5
:104D40008AB18F708AB984B1807F84B92D9A2C9AE8
:104D50000000000000000000000000000000000053
:104D600029B183B12C982D989AB1906F9AB994B1CA
:104D70009F6094B978948F70207F822B0895F89467
:104D800080910C0582958695869583700E944626B3
:104D90002F9A8AB18F708AB984B1807F84B92D9A95
:104DA0002C9A00000000000000000000000000003D
:104DB000000099B183B12C982D9878948F70907FD2
:104DC000892B0895089580930C0580E060E40E948B
:104DD000732610920E0581E060E40E947326109203
:104DE000100580910C05682F6F736064829586951D
:104DF000869583700E94732608951F93182F8093C1
:104E00000D05186B80E0612F0E94732681E0612FF1
:104E10000E9473261F9108950F931F93182F0091DE
:104E20000C050295069506950370F894802F0E9454
:104E300046262F9A2D982C9A8AB1806F8AB984B110
:104E40008F6084B98BB18F708BB99BB1812F807FBC
:104E5000892B8BB985B1807F85B985B11F70812B76
:104E600085B9000000000000000000000000000004
:104E700000002C987894E02FF0E0EE0FFF1FE25F27
:104E8000FA4F80818F5F808380910C058F5F8093C4
:104E90000C0587FF0AC080910D058F5F80930D057B
:104EA0000E94FD2680E00E94E3261F910F91089545
:104EB0001F93182F106C80E0612F0E94732681E0F1
:104EC000612F0E9473261F9108951F93182F862F1C
:104ED0000E94FD26812F0E94E3261F9108950F93C3
:104EE0001F9300E080E0602F0E94652710E080E0C3
:104EF0000E940C271F5F1038D1F70F5F083091F721
:104F00001F910F91089580E00E94582780E060E093
:104F10000E94652710920E0510920F051092100541
:104F20001092110508950E94242680E06FE30E94EC
:104F3000732681E06FE30E9473260E946F270E9410
:104F400083270895982F86E0689F802D1124692F6C
:104F50000E94652708950895459A449A1092C404C2
:104F60001092C3041092C6041092C50480E280938C
:104F7000B800ECEBF0E080818460808310927D04C7
:104F800080818160808380818064808378940895AB
:104F900080E28093B800089590E0611191E08E7FE7
:104FA000982B9093BA0008959093C4048093C304FF
:104FB00008959093C6048093C5040895ECEBF0E047
:104FC00080818F70806A80830895ECEBF0E08081AF
:104FD0008F70806D808308958091BC0087FFFCCF27
:104FE00008958093BB00ECEBF0E080818F708068C7
:104FF00080830895882329F08091BC008F70806C95
:1050000004C08091BC008F7080688093BC000895BC
:105010008091BB0008958091B9000895982F8091E8
:105020007D048823E1F782E080937D049E7F909346
:105030007E04AFE7B4E0FA0102C081918D938E2F18
:10504000841B8617D0F310929F046093A004809174
:10505000BC008F70806A8093BC000895982F809167
:105060007D048823E1F783E080937D049160909331
:105070007E041092C1046093C2048091BC008F70C2
:10508000806A8093BC0080917D048823E1F7A1EAC7
:10509000B4E0FA0102C08D9181938E2F841B861794
:1050A000D0F30895982FFA018091BC008E7F8093F1
:1050B000BC008091BC008F70806A8093BC0080919E
:1050C000BC0087FFFCCF9E7F9093BB008091BC000B
:1050D0008F7080688093BC008091BC0087FFFCCFFC
:1050E0008091B900883189F091E012C0808180936D
:1050F000BB008091BC008F7080688093BC00809161
:10510000BC0087FFFCCF31966150662379F790E0B1
:105110008091BC008F70806D8093BC008091BC003A
:1051200084FFFCCF8091BC0081608093BC00892FFC
:1051300008951F93CF93DF93982F162FEA01809144
:10514000BC008E7F8093BC008091BC008F70806A11
:105150008093BC008091BC0087FFFCCF916090934E
:10516000BB008091BC008F7080688093BC008091F0
:10517000BC0087FFFCCF8091B900803469F091E0DA
:1051800018C08FEF0E94FA278091BC0087FFFCCFE8
:105190008091BB0089931150123098F780E00E94F3
:1051A000FA278091BC0087FFFCCF8091BB008883E9
:1051B00090E08091BC008F70806D8093BC008091E6
:1051C000BC0081608093BC00892FDF91CF911F913B
:1051D000089580917D0408951F920F920FB60F924B
:1051E00011242F933F934F935F936F937F938F93EC
:1051F0009F93AF93BF93EF93FF938091B900887F04
:10520000883609F4CBC0893688F5803309F495C017
:105210008133B0F4803109F45AC0813138F48823E5
:1052200009F43EC1883009F048C151C0803209F408
:1052300084C0883209F453C0883109F03EC14FC0A0
:10524000883409F47AC0893438F4883309F478C092
:10525000803409F032C192C0883509F45DC08036CF
:1052600009F49CC0803509F028C174C0803A09F463
:10527000BEC0813AB0F4803809F49BC0813838F45C
:10528000803709F48BC0883709F017C187C080398F
:1052900009F48FC0883909F4A1C0883809F00DC11C
:1052A0009DC0883B09F4D1C0893B38F4883A09F4A1
:1052B000B6C0803B09F001C1B2C0883C09F4E0C02F
:1052C000883F09F4E7C0803C09F0F7C0D9C08BE9FA
:1052D00096E060E00E943C2280917E0414C08CE73E
:1052E00096E060E00E943C2290919F048091A0048F
:1052F000981708F0DAC0E92FF0E0E158FB4F808101
:105300009F5F90939F048093BB008091BC008F703F
:1053100080688093BC00D1C087E696E060E00E9480
:105320003C228091C1049091BB00E82FF0E0EF5542
:10533000FB4F90838F5F8093C10481E496E0B2C0FD
:105340008DE296E060E00E943C228091BC008F706C
:105350008068AFC089E196E060E00E943C228091C5
:10536000BB009091C104E92FF0E0EF55FB4F808323
:105370009F5F9093C10490E00E94932286E096E0A4
:1053800060E00E943C222091C10430E08091C20480
:1053900090E001972817390734F51EC083EF95E098
:1053A00060E00E943C2285E080937D041092C1045D
:1053B00062C08FED95E060E00E943C228091C104C4
:1053C0009091BB00E82FF0E0EF55FB4F90838F5F8B
:1053D0008093C104803238F48FEF06C08AEC95E0E8
:1053E00060E00E943C2280E00E94FA2766C087EBC2
:1053F00095E060E00E943C228091BC008F70806C40
:105400008093BC00E091C304F091C404309709F488
:1054100052C08091C10461EA74E009954CC084EAED
:1054200095E060E00E943C2284E080937D04E0915E
:10543000C504F091C604309731F080E26FE774E064
:1054400009958093A00410929F0480E995E060E0A4
:105450000E943C2290919F04E92FF0E0E158FB4F1D
:1054600080818093BB009F5F90939F048091A004F4
:10547000981708F04ACF8091BC008F70806C49CF9C
:105480008EE695E060E00E943C228091BC008F7027
:10549000806C0FC08FE595E060E00E943C220DC05B
:1054A0008EE495E060E00E943C228091BC008F7009
:1054B000806D8093BC0010927D04FF91EF91BF91AD
:1054C000AF919F918F917F916F915F914F913F919C
:1054D0002F910F900FBE0F901F901895482F20917D
:1054E0004F04309150048091510490915204281B34
:1054F000390B37FF0CC020914F043091500480913C
:1055000051049091520420563A4F281B390B8CE3DA
:10551000489FA0011124460F511D80915104909184
:105520005204BA01681B790BCB0177FF0AC0809146
:10553000510490915204BA01681B790BCB0180563B
:105540009A4F8217930718F48091540402C08091F7
:1055500053048093B4000895EF92FF920F931F932A
:10556000CF93DF9388E090E00E94CD35EC018AE094
:1055700090E00E94CD358C018CE090E00E94C53512
:10558000F82E8DE090E00E94C535E82E85E0C13A06
:10559000D80728F4D0935004C0934F0408C06091FA
:1055A0004F047091500488E090E00E94E13585E05E
:1055B000013A180728F4109352040093510408C0CC
:1055C00060915104709152048AE090E00E94E135AC
:1055D00080E18F1518F0F092530406C060915304D7
:1055E0008CE090E00E94D33580E18E1518F0E092B7
:1055F000540406C0609154048DE090E00E94D335BD
:10560000DF91CF911F910F91FF90EF900895EF924E
:10561000FF920F931F93CF93DF93809162048F5F6C
:10562000809362040E946F278CE160E00E946527EE
:1056300087EC93E060E00E94FA2380E067E00E943C
:10564000652784ED93E060E00E94FA2380E066E045
:105650000E9465278AEE93E060E00E94FA2388E0CA
:1056600061E00E9465278CEF93E060E00E94FA23DE
:105670008CE561E00E94652780915104909152046D
:105680006CE370E00E946135F62E00915104109198
:105690005204862F60E00E94BC098AE360E00E9409
:1056A000C223C8016CE370E00E94613560E00E9493
:1056B000C9048091C904882349F42CE02F1510F403
:1056C00080E501C081E460E00E94C22388E062E0DE
:1056D0000E94652788E094E060E00E94FA2384E756
:1056E00062E00E9465278091540460E00E94C90432
:1056F00088E064E00E94652789E194E060E00E9410
:10570000FA238CE564E00E94652780914F04909114
:1057100050046CE370E00E946135F62E00914F0456
:1057200010915004862F60E00E94BC098AE360E07B
:105730000E94C223C8016CE370E00E94613560E002
:105740000E94C9048091C904882349F48CE08F1514
:1057500010F480E501C081E460E00E94C22388E08B
:1057600065E00E94652788E094E060E00E94FA23EB
:1057700084E765E00E9465278091530460E00E9401
:10578000C90480E06BE047E00E949A071AE08AE0D3
:10579000E82EC8ECD0E08091640480FF44C01092F1
:1057A0006404183051F1193028F4812F815086306B
:1057B00028F439C0193099F01A3019F0FF24F39405
:1057C00033C080E060E047E020E300E00E940B246B
:1057D00080E063E147E00E949A0719E024C080E07E
:1057E00060E047E020E300E00E940B2480E063E2F9
:1057F00047E00E949A0718E016C080E060E047E0AA
:1058000020E300E00E940B2480E06BE247E00E946E
:105810009A0780E067E00E94652786E294E060E0F6
:105820000E94FA2317E0FF2480916404882321F466
:1058300080916504882311F0E092610480916404F2
:1058400081FF8EC110926404153009F43CC11630FA
:1058500080F4123009F4C8C0133020F4113009F07C
:105860007FC175C0133009F4E0C0143009F078C16D
:105870002AC0183009F497C0193038F4163009F4EA
:1058800043C1173009F06CC14AC0193021F01A30F9
:1058900009F066C1F7C0809154048093B40084E796
:1058A00062E00E9465278091540461E00E94C9046F
:1058B00080E066E00E9465278DE394E060E00E944E
:1058C000FA2314E04DC184E762E00E9465278091CD
:1058D000B40060E00E94C9048091B4008093540435
:1058E000109154048DE090E00E94C535181731F0F6
:1058F000609154048DE090E00E94D3358091C704FC
:105900006091D0040E946E2A80E066E00E946527C4
:105910008AEE93E060E00E94FA2319E021C18091B1
:1059200053048093B40084E765E00E94652780916A
:10593000530461E00E94C90480E066E00E9465278C
:105940008DE394E060E00E94FA2311E009C184E74E
:1059500065E00E9465278091B40060E00E94C90460
:105960008091B40080935304109153048CE090E034
:105970000E94C535181731F0609153048CE090E017
:105980000E94D3358091C7046091D0040E946E2A92
:1059900080E066E00E9465278AEE93E060E00E9466
:1059A000FA2317E0DDC08CE564E00E946527809152
:1059B0004F04909150046CE370E00E946135862F93
:1059C00061E00E94BC098091C7046091D0040E94EC
:1059D0006E2A80E066E00E9465278DE394E060E037
:1059E0000E94FA2312E0BCC08CE564E00E946527A7
:1059F00080914F04909150046CE370E00E946135F7
:105A0000862F60E00E94BC098EE664E00E94652754
:105A100080914F04909150046CE370E00E946135D6
:105A200061E00E94C90413E09BC08EE664E00E941E
:105A3000652780914F04909150046CE370E00E94C0
:105A4000613560E00E94C90480E066E00E9465273D
:105A50008AEE93E060E00E94FA2300914F041091D7
:105A6000500488E090E00E94CD350817190741F0F6
:105A700060914F047091500488E090E00E94E135FD
:105A800018E06EC08CE561E00E94652780915104AA
:105A9000909152046CE370E00E946135862F61E0C2
:105AA0000E94BC098091C7046091D0040E946E2AB4
:105AB00080E066E00E9465278DE394E060E00E944C
:105AC000FA2315E04DC08CE561E00E9465278091C6
:105AD0005104909152046CE370E00E946135862F6E
