:100000000C9410030C942D030C942D030C945E128D
:100010000C942D030C942D030C942D030C942D03A0
:100020000C942D030C9439060C942D030C94A2030C
:100030000C942D030C942F030C9441030C942D036A
:100040000C942D030C942D030C942D030C942D0370
:100050000C942D030C94B6110C942D030C942D03C9
:100060000C94A5280C942D0305A84CCDB2D44EB900
:100070003836A9020C50B9918688083CA6AAAA2A4B
:10008000BE000000803F000000000000005F000094
:100090000007000700147F147F14242A7F2A1223EC
:1000A0001308646236495522500005030000001C05
:1000B0002241000041221C00082A1C2A0808083E90
:1000C00008080050300000080808080800606000B8
:1000D0000020100804023E5149453E00427F400086
:1000E00042615149462141454B311814127F102776
:1000F000454545393C4A49493001710905033649AE
:10010000494936064949291E003636000000563650
:10011000000000081422411414141414412214087D
:10012000000201510906324979413E7E1111117ECA
:100130007F494949363E414141227F4141221C7F4E
:10014000494949417F090901013E414151327F0836
:1001500008087F00417F41002040413F017F081493
:1001600022417F404040407F0204027F7F0408100C
:100170007F3E4141413E7F090909063E4151215ED2
:100180007F09192946464949493101017F01013F4B
:100190004040403F1F2040201F7F2018207F6314D5
:1001A0000814630304780403615149454300007F48
:1001B0004141020408102041417F00000402010275
:1001C0000440404040400001020400205454547850
:1001D0007F484444383844444420384444487F38B5
:1001E00054545418087E090102081454543C7F08E2
:1001F00004047800447D40002040443D00007F100E
:10020000284400417F40007C041804787C080404E2
:100210007838444444387C14141408081414187CA6
:100220007C080404084854545420043F4440203CB3
:100230004040207C1C2040201C3C4030403C442856
:100240001028440C5050503C4464544C4400083630
:10025000410000007F0000004136080008082A1C09
:1002600008081C2A0808FF8181FF000000FF9F91F9
:1002700091F1919191FFF01010FFF191919FFF91F9
:10028000919F808080FFFF9191FFF19191FF00008D
:10029000000053554E4D4F4E545545574544544814
:1002A000554652495341540000004A414E4645428A
:1002B0004D41524150524D41594A554E4A554C417B
:1002C00055475345504F43544E4F56444543000BFA
:1002D0003E41414141424242423C0006FFFFFFFF96
:1002E000FFFF000000000000005F000000070007A3
:1002F00000147F147F14242A7F2A122313086462B7
:1003000036495522500005030000001C2241000020
:1003100041221C00082A1C2A0808083E0808005030
:10032000300000080808080800606000002010087D
:1003300004023E5149453E00427F4000426151491E
:10034000462141454B311814127F10274545453948
:100350003C4A494930017109050336494949360685
:100360004949291E003636000000563600000008B4
:1003700014224114141414144122140800020151CF
:100380000906324979413E7E1111117E7F49494962
:10039000363E414141227F4141221C7F494949412A
:1003A0007F090901013E414151327F0808087F0061
:1003B000417F41002040413F017F081422417F409E
:1003C0004040407F0204027F7F0408107F3E41418D
:1003D000413E7F090909063E4151215E7F091929E5
:1003E00046464949493101017F01013F4040403FB4
:1003F0001F2040201F7F2018207F631408146303F0
:1004000004780403615149454300007F41410204DF
:1004100008102041417F00000402010204404040D6
:100420004040000102040020545454787F48444462
:10043000383844444420384444487F38545454188D
:10044000087E090102081454543C7F080404780013
:10045000447D40002040443D00007F10284400417E
:100460007F40007C041804787C08040478384444F5
:1004700044387C14141408081414187C7C080404F0
:10048000084854545420043F4440203C4040207CC1
:100490001C2040201C3C4030403C44281028440C88
:1004A0005050503C4464544C440008364100000015
:1004B0007F0000004136080008082A1C08081C2A92
:1004C00008084932433A204255535F4552524F5231
:1004D0000D0A004932433A204E4F5F494E464F0DB8
:1004E0000A004932433A2053542D3E444154415F5F
:1004F0004E41434B206F72204C4153545F44415452
:10050000410D0A004932433A2053542D3E44415490
:10051000415F41434B0D0A004932433A2053542D69
:100520003E534C415F41434B0D0A004932433A2050
:1005300053522D3E53525F53544F500D0A004932CF
:10054000433A2053522D3E444154415F4E41434B68
:100550000D0A004932433A2053522D3E4441544142
:100560005F41434B0D0A004932433A2053522D3E1E
:10057000534C415F41434B0D0A004932433A204DF1
:10058000522D3E534C415F41434B0D0A00493243CB
:100590003A204D522D3E444154415F41434B0D0A98
:1005A000004932433A204D542D3E4152425F4C4F58
:1005B00053540D0A004932433A204D54522D3E53B4
:1005C0004C415F4E41434B206F72204D542D3E44B1
:1005D0004154415F4E41434B0D0A004932433A209A
:1005E0004D522D3E444154415F4E41434B0D0A0054
:1005F0004932433A204D542D3E534C415F41434BC9
:10060000206F7220444154415F41434B0D0A004921
:1006100032433A204D2D3E53544152540D0A0000AE
:1006200011241FBECFEFD8E0DEBFCDBF15E0A0E0A4
:10063000B1E0E6E0F1E702C005900D92AE35B107FA
:10064000D9F716E0AEE5B5E001C01D92AA31B107B9
:10065000E1F70E94C1070C9481380C9400001F92AE
:100660000F920FB60F9211248F939F9388B198E049
:10067000892788B99F918F910F900FBE0F901F907F
:1006800018951F920F920FB60F9211248F939F937C
:100690008091650590916605892B49F080916505EB
:1006A000909166050197909366058093650580910A
:1006B000DF059091E005892B49F08091DF0590914D
:1006C000E00501979093E0058093DF058091DD05BB
:1006D000882389F18091630590916405892B59F5F0
:1006E0008091D4059091D505892BE1F48CE291E0BD
:1006F0009093D5058093D40580918100882379F467
:100700001092800089E08093810083E080936F00E5
:1007100088EE93E0909389008093880003C0109244
:10072000810043988091D4059091D50501979093CD
:10073000D5058093D4059F918F910F900FBE0F9098
:100740001F9018951F920F920FB60F9211248F933E
:100750009F9388B198E0892788B99F918F910F90D6
:100760000FBE0F901F901895AF92BF92CF92DF925D
:10077000EF92FF920F931F93E62E1092800029E0D4
:100780002093810023E020936F009C0140E050E023
:1007900060E079E08DE390E00E9466363093890056
:1007A00020938800FF2400E010E0C801B7010E94F8
:1007B00084335B016C0120E030E04AEF54E40E9496
:1007C0009C307B018C0120E030E040E85FE30E9438
:1007D000A23288231CF461E070E024C0C801B70194
:1007E00020E03FEF4FE757E40E9442321816B4F47E
:1007F000C601B50120E030E040E251E40E949C30A7
:100800000E94C62E88EC90E005C0FC013197F1F7FC
:100810006150704061157105C1F707C0C801B7018B
:100820000E94C62ECB010197F1F7109281004398E8
:100830001F910F91FF90EF90DF90CF90BF90AF90FE
:100840000895FC0183709070892B39F4CF0164E620
:1008500070E00E941D36892B49F420E030E0CF0182
:1008600060E971E00E941D36892B11F421E030E02F
:10087000822F08950895482F6AE00E941136282F8C
:1008800030E084E0220F331F8A95E1F7842F0E9425
:100890001136892F822B089588E592E090936405A4
:1008A000809363051092810043981092DE050895AD
:1008B0001E9B16C08091DA05882321F11092DA057B
:1008C0001092E30510926405109263058091DD0596
:1008D0008823C1F01092DD0510928100439808959D
:1008E0008091DA05882371F481E08093DA05109213
:1008F00064051092630583E080936205809361052F
:100900000E94471508950F931F93182F062F6AE032
:100910000E941136805D602F0E947B23812F6AE048
:100920000E941136892F805D602F0E947B231F91CA
:100930000F910895CF92DF92EF92FF920F931F9342
:10094000DF93CF93CDB7DEB728970FB6F894DEBF0D
:100950000FBECDBF162FF42ED22EFE01319698E099
:10096000DF011D929A95E9F719820E943B048A8360
:10097000812F0E943B048B838F2D0E943B048C832C
:100980008D2D0E943B048D83802F0E943B048E831B
:100990008E2D0E943B048F838C2D0E943B04888700
:1009A000F89480ED68E0AE014F5F5F4F0E940B2826
:1009B00078948823D9F008EC10E080EA9FE064E6A0
:1009C0000E94B40388EE93E0F8013197F1F70197A4
:1009D000D9F780EA9FE064E60E94B40380E197E2E1
:1009E000F8013197F1F70197D9F7E7CF28960FB6BD
:1009F000F894DEBF0FBECDBFCF91DF911F910F9155
:100A0000FF90EF90DF90CF9008950F931F93DF93A7
:100A1000CF93CDB7DEB729970FB6F894DEBF0FBEE0
:100A2000CDBF1982F89480ED61E0AE014F5F5F4F5A
:100A30000E940B288823E1F008EC10E0789480EA0B
:100A40009FE064E60E94B40388EE93E0F8013197DA
:100A5000F1F70197D9F780EA9FE064E60E94B403BA
:100A600080E197E2F8013197F1F70197D9F7E6CFE6
:100A700080ED67E0AE014E5F5F4F0E945228789490
:100A80008823D9F008EC10E080EA9FE064E60E9439
:100A9000B40388EE93E0F8013197F1F70197D9F7A5
:100AA00080EA9FE064E60E94B40380E197E2F801E7
:100AB0003197F1F70197D9F7E7CF7A81872F8295A0
:100AC0008F7090E0877090709C01A3E0220F331F1D
:100AD000AA95E1F7880F991F280F391F872F8F706C
:100AE000820F8093E2054B81842F82958F7090E076
:100AF000877090709C01E3E0220F331FEA95E1F7C5
:100B0000880F991F280F391F4F70420F4093D80547
:100B10008C81482F42954F70682F6F7086FF22C0DE
:100B200082958695877090E0817090709C01220F6D
:100B3000331F280F391F220F331F220F331F842F1B
:100B400090E081709070AC0103E0440F551F0A954E
:100B5000E1F7880F991F480F591F240F260F209384
:100B6000CF0511C0842F90E0837090709C01B3E09A
:100B7000220F331FBA95E1F7880F991F280F391FED
:100B8000620F6093CF054E81842F82958F7090E025
:100B9000837090709C01F3E0220F331FFA95E1F708
:100BA000880F991F280F391F4F70420F4093D705A8
:100BB0004F81842F82958F7090E0817090709C019E
:100BC00063E0220F331F6A95E1F7880F991F280F02
:100BD000391F4F70420F4093E1052885822F82957F
:100BE0008F703AE0839FC00111242F70280F20934B
:100BF000D205872F807829960FB6F894DEBF0FBEF6
:100C0000CDBFCF91DF911F910F910895CF92EF92B9
:100C10000F930E9465270E940505882359F080E004
:100C200060E04CE020E001E0EE24E394B9E0CB2E5C
:100C30000E949A040E94050582E090E00E941C3701
:100C40006CE30E9411369093D30581E090E00E94FE
:100C50001C3768E10E9411369093DC0587E0809391
:100C6000B10081E08093700078940F91EF90CF9065
:100C700008951F920F920FB60F921124FF920F93B7
:100C80001F932F933F934F935F936F937F938F9314
:100C90009F93AF93BF93EF93FF93A89580916705C0
:100CA000803579F410926705F090E2051091D8052F
:100CB0000091CF050E9405058091CF05801729F48A
:100CC0000AC08F5F80936705DBC081E08093600579
:100CD0000093D90507C08091D805811729F081E0DC
:100CE00080935F051093D0058091E2058F1509F47C
:100CF00041C08091DD05882359F080916305909172
:100D00006405009729F0019790936405809363052B
:100D100080916105882371F18091610581508093F4
:100D2000610580916105882329F580916205809392
:100D300070051092620580916005882329F08091EA
:100D4000D9058093CF0504C080915F05882321F0E9
:100D50008091D0058093D8050E9447158091600549
:100D6000882321F480915F05882321F00093CF052B
:100D70001093D8058091DE05843061F08091DE0506
:100D8000853041F08091DE05883021F08091DE05CC
:100D9000863089F580916A05882369F584E462E0EC
:100DA0000E941E278091CF0560E00E9475098AE3AA
:100DB00060E00E947B238091D80560E00E9483045C
:100DC0008AE360E00E947B238091E20560E00E945C
:100DD00083048091D105882371F480E260E00E9451
:100DE0007B238091CF058C3010F080E501C081E439
:100DF00060E00E947B238091DA05882399F080913E
:100E0000E205882379F49091D8058091D30598174D
:100E100049F49091CF058091DC05981719F481E091
:100E20008093E30580915F05882369F480916005D4
:100E3000882349F48091E305882329F081E0809399
:100E4000DD051092E30580916805863039F4109233
:100E5000680580916E05882329F409C08F5F80930F
:100E600068050EC080916E05815080936E0580915B
:100E70006905882329F0809169058150809369056F
:100E8000FF91EF91BF91AF919F918F917F916F9162
:100E90005F914F913F912F911F910F91FF900F9074
:100EA0000FBE0F901F901895EF92FF920F931F9314
:100EB000F82E162FE42E21E001E00E94C423FE0C40
:100EC0000F2D02501150802F612F0E9407251E5FA9
:100ED000802F612F0E94072501501350802F612F12
:100EE0000E9407251C5F802F612F0E9407251F91FC
:100EF0000F91FF90EF90089580E090E00E941C37E2
:100F0000833CF1F181E090E068E00E942A3782E0C2
:100F100090E060E00E942A3783E090E060E10E9468
:100F20002A3784E090E061E00E942A3785E090E073
:100F300060E00E942A3786E090E060E00E942A3755
:100F400087E090E06AE00E942A3780E090E063EC5E
:100F50000E942A3788E090E068E671E00E94383706
:100F60008AE090E064E675E00E9438378CE090E01B
:100F70006BE00E942A378DE090E061E00E942A3702
:100F800008957F928F929F92AF92BF92CF92DF92FD
:100F9000EF92FF920F931F93CF93DF9384B714BE0A
:100FA00088E10FB6F89480936000109260000FBE45
:100FB0008AE190E00E94BA213B9A0E9406060E94B4
:100FC00048130E947C0785E090E00E941C378093C4
:100FD000DB0586E090E00E941C378093D1050E94DB
:100FE0008B110E94580482E084BD83E085BD8DE7AB
:100FF00087BD80916E00826080936E00539A80E27C
:101000008093B0008091B00083608093B0008091A5
:10101000B10088608093B10080E18093B30083E0E9
:1010200090E00E941C378093B400259A80EA9FE0EC
:1010300064E60E94B4032FE088E190E00FB6F894D4
:10104000A895809360000FBE209360000E944C27FB
:101050000E9428270E94652A0E942E1D80E00E947F
:10106000971C00E010E0CBE4D0E068E5A62E62E03B
:10107000B62E52E0752ECC24C39443E0F42E35E016
:10108000D32E24E0E22E98E0992E86E0882ED0938D
:10109000E005C093DF058091CF056091D8050E94DF
:1010A000272A80916C05882379F08091DD058823BB
:1010B00059F010926C05B0926405A09263051092ED
:1010C000810043981092DE05113039F4809161055A
:1010D0008823F1F4D092620508C0123061F4809147
:1010E00061058823A9F4C0926205F09261050E940F
:1010F000471513E00DC0133059F480916105882322
:1011000039F470926205109361050E94471510E052
:1011100080916C05867041F110926C058091DB0521
:10112000882321F08091DB05813019F4C09262059B
:1011300012C08091DB05823021F08091DB05833085
:1011400021F4E092620512E00BC08091DB0584304F
:1011500021F4D092620513E003C0E092620511E031
:10116000F09261050E94471580916C0580FF44C094
:1011700010926C0510926205109261050E9447154D
:101180008091DE05843089F0853028F4882341F091
:10119000833009F511C08530A1F08830E1F416C024
:1011A000E092DE050E949F0D1DC0F092DE050E94B8
:1011B000FE0B1092000116C0D092DE050E94CC0FEB
:1011C00011C09092DE050E949F0E0CC08092DE0539
:1011D0000E94660F07C01092DE050E94282780E05B
:1011E0000E94971C8091DE05882329F40E942827FD
:1011F00080E00E94971C10E00E947A1D8091DE051D
:10120000882339F5002369F48091DD05882369F08E
:101210008091E20580FF09C081E00E94971C01E0F7
:1012200018C08091DD05882351F08091DD05882369
:1012300059F0002349F08091E20580FD05C080E06F
:101240000E94971C00E005C02D9A802F0E94A81BC9
:101250002D988091DF059091E005892BD1F717CF6C
:101260000F931F93CF93DF93182F062F8091D105F3
:10127000882371F584E761E00E941E271C3010F07E
:1012800080E501C081E460E00E947B238DE460E0A2
:101290000E947B2380E561E00E941E27812F90E061
:1012A00047966CE070E00E943136EC018930910580
:1012B00024F09C012F5F822F10C080E260E00E942A
:1012C0007B239E012F5C822F602F0E947B2308C00E
:1012D00080E561E00E941E27812F602F0E94830419
:1012E000DF91CF911F910F9108950F931F93CF938B
:1012F000DF93082F162F8091D1058823D1F4802FFA
:1013000090E047966CE070E00E943136EC01893045
:10131000910524F09C012F5F822F14C080E260E0D1
:101320000E947B239E012F5C822F612F0E947B23D2
:101330000CC080E260E00E947B2380E260E00E94BB
:101340007B23802F612F0E948304DF91CF911F9117
:101350000F9108951F93182F88E064E00E941E27C4
:1013600081E091E060E00E94B3238091DB05882357
:1013700039F48091D105882319F48AE091E078C08E
:101380008091DB05882339F48091D105813019F4EF
:1013900087E191E06DC08091DB05813039F4809167
:1013A000D105882319F484E291E062C08091DB05C5
:1013B000813039F48091D105813019F481E391E0D5
:1013C00057C08091DB05823039F48091D1058823A4
:1013D00019F48EE391E04CC08091DB05823039F442
:1013E0008091D105813019F48BE491E041C0809166
:1013F000DB05833039F48091D105882319F488E521
:1014000091E036C08091DB05833039F48091D105BD
:10141000813019F485E691E02BC08091DB058430A2
:1014200039F48091D105882319F482E791E020C036
:101430008091DB05843039F48091D105813019F435
:101440008FE791E015C08091DB05853039F48091FC
:10145000D105882319F48CE891E00AC08091DB055E
:10146000853049F48091D105813029F489E991E0F2
:10147000612F0E94B3231F910895282F663081F1B8
:10148000673078F4633019F1643030F46130C9F0BA
:10149000623009F03FC018C06430E1F06530D1F52A
:1014A0001CC0693031F16A3028F46730E1F06830EF
:1014B00089F51CC06B3019F16B30F0F06C3051F5D0
:1014C00024C086EA91E01DC08AEA91E01AC08EEA43
:1014D00091E017C082EB91E014C086EB91E011C05F
:1014E0008AEB91E00EC08EEB91E00BC082EC91E0B4
:1014F00008C086EC91E005C08AEC91E002C08EEC59
:1015000091E0622F0E94B323089582ED91E0622F53
:101510000E94B32308951F93182F862F642F422F04
:101520000E94DC158330B9F0843028F4813069F0F2
:10153000823070F407C08530A1F0853078F08630B5
:10154000C1F412C086ED91E011C08BED91E00EC0A8
:1015500080EE91E00BC085EE91E008C08AEE91E04C
:1015600005C08FEE91E002C084EF91E0612F0E94F0
:10157000B3231F910895EF92FF920F931F93182F9B
:10158000062FE42EF22E88E063E00E941E2789EFEA
:1015900091E060E00E94B3238091DB05882331F461
:1015A0008FEF91E060E00E94B32318C08091DB05CB
:1015B000813031F48FEF91E060E00E94B3232FC0BF
:1015C0008091DB058230E9F480E260E00E947B23B9
:1015D00080E0612F402F2E2D0E948B0A60E08BE06F
:1015E000F81609F461E0812F0E9483048FE260E025
:1015F0000E947B2360E09CE0F91609F461E0802FF3
:1016000020C08091DB05833001F580E260E00E941C
:101610007B2380E0612F402F2E2D0E948B0A60E0FB
:101620008CE0F81609F461E0802F0E9483048FE2B9
:1016300060E00E947B2360E09BE0F91609F461E022
:10164000812F0E9483048FE23EC08091DB058430AD
:10165000F9F485E092E060E00E94B32380E09BE033
:10166000F91609F481E0612F0E943D0A80E260E0F2
:101670000E947B2360E08CE0F81609F461E0802F83
:101680000E9483048CE260E00E947B2380E21BC006
:1016900080E0612F402F2E2D0E948B0A80E09BE07E
:1016A000F91609F481E0612F0E943D0A80E260E0B2
:1016B0000E947B2360E08CE0F81609F461E0802F43
:1016C0000E9483048CE260E00E947B2310E09DE096
:1016D000F91609F411E084E1612F0E9483048E2D34
:1016E000612F0E9483041F910F91FF90EF90089546
:1016F00080916A058F5F80936A050E94282780E0A9
:1017000060E00E941E2789E092E060E00E94B3231F
:1017100088E061E00E941E278CE192E060E00E9478
:10172000B3238091DC0560E00E9430098AE360E029
:101730000E947B238091D30560E00E94830488E0AF
:1017400062E00E941E2789E292E060E00E94B323DB
:101750008091CF0560E00E9475098AE360E00E94F5
:101760007B238091D80560E00E9483048AE360E0D7
:101770000E947B238091E20560E00E9483048091B7
:10178000D105882371F480E260E00E947B23809180
:10179000CF058C3010F080E501C081E460E00E944C
:1017A0007B238091E1056091D7054091D20525E02A
:1017B0000E94BB0A80E00E94AA0988E065E00E94BE
:1017C0001E2784E392E060E00E94B32380E066E09D
:1017D0000E941E2780E492E060E00E94B32380E034
:1017E00067E00E941E2786E592E060E00E94B32336
:1017F00080916A05815080936A050895BF92CF92C7
:10180000DF92EF92FF920F931F93CF93DF9310918C
:10181000CF05D090D805F090E2050E94780B80911A
:101820006A058F5F80936A0580E063E147E00E946C
:10183000540780916A05815080936A058AE08093FD
:10184000690503E08AE0B82EC8ECD0E080916C0511
:1018500080FD6BC180916C05882321F480916D051A
:10186000882319F0B092690507C080916905882323
:1018700019F41092DE0559C180916C0581FFDCC01E
:1018800010926C0580916A058F5F80936A05033022
:1018900081F584E462E00E941E27812F61E00E94AE
:1018A000750984E762E00E941E278091D105882394
:1018B00061F480E260E00E947B231C3010F080E540
:1018C00001C081E461E00E947B2380E066E00E9429
:1018D0001E2787E692E060E00E94B32380E067E085
:1018E0000E941E278DE792E060E00E94B32305E688
:1018F0009EC00536C1F584E462E00E941E27812F58
:1019000060E00E9475098AE360E00E947B238D2DD0
:1019100061E00E94830480E066E00E941E2783E964
:1019200092E060E00E94B32380E067E00E941E27FF
:1019300089EA92E060E00E94B32384E762E00E94BB
:101940001E278091D105882361F480E260E00E9427
:101950007B231C3010F080E501C081E460E00E9430
:101960007B2306E664C0063651F58091D1058823B5
:1019700011F486E501C082E662E00E941E278D2DEB
:1019800060E00E9483048AE360E00E947B238F2D45
:1019900061E00E94830480E066E00E941E278FEBD6
:1019A00092E060E00E94B32380E067E00E941E277F
:1019B00085ED92E060E00E94B32307E638C0809195
:1019C000D105882311F488E601C084E762E00E9413
:1019D0001E278F2D60E00E94830480E066E00E9455
:1019E0001E2780E492E060E00E94B32380E067E07D
:1019F0000E941E2786E592E060E00E94B3231093C8
:101A0000CF05D092D805F092E2058091E205609171
:101A1000D8054091CF050091D705E090E105C09031
:101A2000D20520E00E949A040E94481303E08091AE
:101A30006A05815080936A0580916C0582FD04C01F
:101A400080916D0582FF02CF10926C0580916A052E
:101A50008F5F80936A05053649F5812F90E00196E6
:101A600068E170E00E943136182F8093CF0584E43E
:101A700062E00E941E27812F61E00E94750984E7C1
:101A800062E00E941E278091D1058823E9F580E25B
:101A900060E00E947B238091CF058C3010F080E5C0
:101AA00001C081E461E00E947B232EC00636A1F4D0
:101AB0008D2D90E001966CE370E00E943136D82EB7
:101AC0008091D105882311F486E501C082E662E0A9
:101AD0000E941E278D2D15C00736B1F48F2D90E082
:101AE00001966CE370E00E943136F82E8091D105AA
:101AF000882311F488E601C084E762E00E941E2773
:101B00008F2D61E00E94830480916A05815080934B
:101B10006A0580916D0582FF99CE80ED97E0FE0108
:101B20003197F1F70197D9F791CEDF91CF911F91BE
:101B30000F91FF90EF90DF90CF90BF9008950F939B
:101B40001F93CF93DF930E94780B80916A058F5F7C
:101B500080936A0580E06BE047E00E945407809123
:101B60006A05815080936A058AE08093690514E0D4
:101B70000AE0C8ECD0E080916C0580FDDBC080916C
:101B80006C05882321F480916D05882319F000935A
:101B9000690507C080916905882319F41092DE0554
:101BA000C9C080916C0581FF74C010926C05809152
:101BB0006A058F5F80936A051430C9F48091DC0553
:101BC00061E00E94300980E066E00E941E2787E6FF
:101BD00092E060E00E94B32380E067E00E941E274D
:101BE0008DE792E060E00E94B32315E64DC0153604
:101BF00031F580E561E00E941E278091DC0560E000
:101C00000E94300982E661E00E941E278091D30580
:101C100061E00E94830480E066E00E941E2783E961
:101C200092E060E00E94B32380E067E00E941E27FC
:101C300089EA92E060E00E94B32316E625C080E5C1
:101C400061E00E941E278091DC0560E00E9430095F
:101C500082E661E00E941E278091D30560E00E9429
:101C6000830480E066E00E941E2780E492E060E04A
:101C70000E94B32380E067E00E941E2786E592E081
:101C800060E00E94B32314E080916A058150809344
:101C90006A0580916C0582FD04C080916D0582FF0C
:101CA0006ACF10926C0580916A058F5F80936A05F8
:101CB0001536A1F48091DC0590E0019668E170E0B2
:101CC0000E9431368093DC058091DC0561E00E9442
:101CD00030096091DC0581E090E019C01636C9F446
:101CE0008091D30590E001966CE370E00E9431365C
:101CF0008093D30582E661E00E941E278091D30580
:101D000061E00E9483046091D30582E090E00E942C
:101D10002A3780916A05815080936A0580916D050C
:101D200082FF29CF80ED97E0FE013197F1F701970F
:101D3000D9F721CFDF91CF911F910F9108950F9384
:101D40001F930E94780B80916A058F5F80936A05CC
:101D500080E063E247E00E94540780916A05815069
:101D600080936A058AE08093690518E00AE0809113
:101D70006C0580FDA8C080916C05882321F48091BA
:101D80006D05882319F00093690507C080916905E6
:101D9000882319F41092DE0596C080916C0581FFAE
:101DA0003BC010926C0580916A058F5F80936A0535
:101DB0001830B9F481E00E94AA0980E066E00E9430
:101DC0001E278BEE92E060E00E94B32380E067E084
:101DD0000E941E2781E093E060E00E94B32318E692
:101DE00016C080E00E94AA0980E066E00E941E27DB
:101DF00080E492E060E00E94B32380E067E00E940C
:101E00001E2787E193E060E00E94B32318E08091F1
:101E10006A05815080936A0580916C0582FD04C03B
:101E200080916D0582FFA3CF10926C05183609F0E2
:101E30009ECF8091D105882359F08091DB058F5F7B
:101E40008093DB058091DB05863010F01092DB0576
:101E50008091D10590E0882309F491E09093D10519
:101E600080916A058F5F80936A050E94780B80E0FD
:101E700066E00E941E278BEE92E060E00E94B32392
:101E800080E067E00E941E2781E093E060E00E940E
:101E9000B32380E063E247E00E94540781E00E94A0
:101EA000AA0980916A05815080936A056091DB05DB
:101EB00085E090E00E942A376091D10586E090E0AD
:101EC0000E942A3754CF1F910F9108951F930E94AB
:101ED000780B80916A058F5F80936A0580E066E0E9
:101EE0000E941E278DE293E060E00E94B32380E011
:101EF0006BE247E00E94540780916A05815080930D
:101F00006A058AE0809369051AE080916C0580FD7E
:101F100041C080916C05882321F480916D05882350
:101F200019F01093690507C080916905882319F499
:101F30001092DE052FC080916C0581FF20C01092A9
:101F40006C050E94C02A0E94780B80916A058F5F01
:101F500080936A0580E066E00E941E278DE293E090
:101F600060E00E94B32380E06BE247E00E945407E8
:101F700080916A05815080936A051093690580916C
:101F80006C0582FD04C080916D0582FFBECF10926A
:101F90006C05BBCF1F910895BF92CF92DF92EF9255
:101FA000FF920F931F93CF93DF93F090D70510917B
:101FB000E105D090D2050E94780B80916A058F5F71
:101FC00080936A0580E06BE147E00E9454078091AE
:101FD0006A05815080936A058AE08093690505E06F
:101FE0004AE0B42EC8ECD0E080916C0580FD89C138
:101FF00080916C05882321F480916D05882319F068
:10200000B092690507C080916905882319F4109280
:10201000DE0577C180916C0581FFE1C010926C05EF
:1020200080916A058F5F80936A050530F1F4809195
:10203000DB05882309F451C08091DB05823009F467
:102040004CC08091DB05843009F447C08091DB05EA
:10205000853009F442C08091DB058130C9F0809160
:10206000DB05833009F086C013C00B3059F5809131
:10207000DB05882369F08091DB05823049F080918F
:10208000DB05843029F08091DB05853009F050C0F4
:10209000812F6F2D4D2D2CE00E94BB0A80E066E061
:1020A0000E941E278FE693E060E00E94B32380E049
:1020B00067E00E941E2785E893E060E00E94B3235A
:1020C0000CE088C00C3009F055C08091DB058130F0
:1020D00021F08091DB058330D1F4812F6F2D4D2DC0
:1020E0002BE00E94BB0A80E066E00E941E2783E48A
:1020F00093E060E00E94B32380E067E00E941E2727
:1021000089E593E060E00E94B3230BE063C0809117
:10211000DB058823A9F08091DB05823089F080916E
:10212000DB05843069F08091DB05853019F508C046
:102130008091DB05813021F08091DB058330D1F483
:10214000812F6F2D4D2D2DE00E94BB0A80E066E0AF
:102150000E941E278BE993E060E00E94B32380E099
:1021600067E00E941E2781EB93E060E00E94B323AA
:102170000DE030C0812F6F2D4D2D25E00E94BB0A50
:1021800080E066E00E941E2780E492E060E00E940A
:10219000B32380E067E00E941E2786E592E060E0BE
:1021A0000E94B323D092D2051093E105F092D70597
:1021B0008091E2056091D8054091CF050091D70547
:1021C000E090E105C090D20520E00E949A040E94B0
:1021D000481305E080916A05815080936A058091DB
:1021E0006C0582FD04C080916D0582FFFDCE1092CA
:1021F0006C0580916A058F5F80936A050B3089F5C5
:102200001F5F1D3010F011E027C01230C1F48D2D7A
:1022100090E00E942104882331F08DE18F1518F49D
:102220003DE1F32E19C08D2D90E00E9421048823FA
:1022300099F48CE18F1580F42CE1F22E0DC014304E
:1022400031F0163021F0193011F01B3029F48EE1F5
:102250008F1510F49EE1F92E812F6F2D4D2D2BE05F
:102260003DC00C3069F5F3948FE18F1510F4FF2415
:10227000F394123099F48D2D90E00E94210488236C
:1022800019F08DE18F15A8F08D2D90E00E942104AA
:10229000882389F48CE18F1560F00DC0143031F083
:1022A000163021F0193011F01B3029F48FE1F816A7
:1022B00011F4FF24F394812F6F2D4D2D2CE00EC0CF
:1022C0000D3071F48D2D90E0019664E670E00E946F
:1022D0003136D82E812F6F2D4D2D2DE00E94BB0A57
:1022E00080916A05815080936A0580916D0582FF17
:1022F0007BCE80ED97E0FE013197F1F70197D9F79A
:1023000073CEDF91CF911F910F91FF90EF90DF90EF
:10231000CF90BF90089526982E9A81E08093680010
:10232000EBE6F0E080818064808382E080937C0033
:1023300010927B00EAE7F0E08EE880838081806481
:102340008083089580917A00877F80937A008091BE
:102350007A00806480937A0080917A0084FFFCCFB9
:102360002091780030917900C90108951F920F9251
:102370000FB60F9211242F933F934F935F936F9358
:102380007F938F939F93AF93BF93EF93FF93789433
:10239000809178009091790022E0803E920728F0A9
:1023A00010926D0510926B0573C022E08336920780
:1023B00098F180916B0582FD6BC080E29EE40197ED
:1023C000F1F70E94A211825692408E37910508F0D3
:1023D0005FC082E080936E0512C00E94A2118256F7
:1023E00092408E37910558F080916B058B7F8093DA
:1023F0006B0580916C05846080936C0549C0809169
:102400006E05882351F780916B05846080936B057E
:1024100080916D0584603AC08F509140E8F08091C2
:102420006B0581FD10C080E29EE40197F1F70E94E8
:10243000A2118E5091408555914050F580916C05C8
:10244000826080936C0580916B05826080936B0540
:1024500080916D0582601AC080916B0580FD0EC071
:1024600080E29EE40197F1F70E94A2118F50914003
:1024700078F480916C05816080936C0580916B0588
:10248000816080936B0580916D05816080936D05FF
:1024900080917A00886480937A00FF91EF91BF91D8
:1024A000AF919F918F917F916F915F914F913F91EC
:1024B0002F910F900FBE0F901F9018951F920F92A3
:1024C0000FB60F9211242F933F934F935F936F9307
:1024D0007F938F939F93AF93BF93EF93FF937894E2
:1024E0000E945804FF91EF91BF91AF919F918F91FE
:1024F0007F916F915F914F913F912F910F900FBE00
:102500000F901F9018952F923F924F925F926F926B
:102510007F928F929F92AF92BF92CF92DF92EF9273
:10252000FF920F931F932090710530907205409099
:1025300073055090740560907505709076058090D5
:10254000770590907805AA24BB246501F501E37016
:10255000F070EE0FFF1FEE0FFF1FE450FA4FE08008
:10256000F18002811381EA0CFB1C0C1D1D1DD4019E
:10257000C30175E0B695A795979587957A95D1F79C
:10258000A401930164E0220F331F441F551F6A9575
:10259000D1F782279327A427B527860D971DA81D5D
:1025A000B91DE826F9260A271B272E0C3F1C401EC2
:1025B000511E89EB99E7A7E3BEE9A80EB91ECA1E12
:1025C000DB1EA2019101F5E05695479537952795B9
:1025D000FA95D1F7D201C101E4E0880F991FAA1F33
:1025E000BB1FEA95D1F7282739274A275B27220DF9
:1025F000331D441D551DD601C5017BE0B695A79539
:10260000979587957A95D1F783709070880F991F69
:10261000880F991F84509A4FFC0180819181A2817B
:10262000B3818A0D9B1DAC1DBD1D282739274A2764
:102630005B27620E731E841E951EF0E2AF16F7E351
:10264000BF06FFEECF06F6ECDF0609F07FCF209243
:102650007105309272054092730550927405609234
:1026600075057092760580927705909278051F9196
:102670000F91FF90EF90DF90CF90BF90AF909F9021
:102680008F907F906F905F904F903F902F90089524
:10269000EF92FF920F931F938EE691E7A9EEBDE2B2
:1026A0008093FC059093FD05A093FE05B093FF0574
:1026B00081ED9DEDAFE3B9E98093000690930106AB
:1026C000A0930206B093030687E59BEFA7E7BAE263
:1026D0008093040690930506A0930606B093070620
:1026E00080EB96EEA2E7B1EB809308069093090683
:1026F000A0930A06B0930B06109271051092720512
:10270000109273051092740510927505109276055B
:1027100010927705109278050E948312E090DC05F4
:10272000FF2400E010E0102F0F2DFE2CEE248091EE
:10273000CF0590E0A0E0B0E0E82AF92A0A2B1B2B95
:10274000102F0F2DFE2CEE248091D80590E0A0E0F4
:10275000B0E0E82AF92A0A2B1B2B102F0F2DFE2C94
:10276000EE248091E20590E0A0E0B0E0E82AF92AAA
:102770000A2B1B2B8091750590917605A09177050A
:10278000B0917805880F991FAA1FBB1F2091FC05E7
:102790003091FD054091FE055091FF05822793275A
:1027A000A427B5278093FC059093FD05A093FE0513
:1027B000B093FF050E948312D801C701880F991FAB
:1027C000AA1FBB1F2091000630910106409102060E
:1027D0005091030682279327A427B52780930006EC
:1027E00090930106A0930206B09303060E94831201
:1027F00016950795F794E794809104069091050645
:10280000A0910606B0910706E826F9260A271B279D
:10281000E0920406F0920506009306061093070660
:102820000E9483128091750590917605A09177059D
:10283000B0917805B695A79597958795209108064C
:102840003091090640910A0650910B068227932782
:10285000A427B5278093080690930906A0930A063B
:10286000B0930B060E948312E090D305FF2400E092
:1028700010E0102F0F2DFE2CEE248091E10590E04A
:10288000A0E0B0E0E82AF92A0A2B1B2B102F0F2D0D
:10289000FE2CEE248091D70590E0A0E0B0E0E82A7D
:1028A000F92A0A2B1B2B102F0F2DFE2CEE248091C2
:1028B000D20590E0A0E0B0E0E82AF92A0A2B1B2B11
:1028C000D801C701880F991FAA1FBB1F2091FC05C3
:1028D0003091FD054091FE055091FF058227932719
:1028E000A427B5278093FC059093FD05A093FE05D2
:1028F000B093FF050E94831280917105909172053B
:10290000A0917305B0917405880F991FAA1FBB1F72
:102910002091000630910106409102065091030675
:1029200082279327A427B52780930006909301065A
:10293000A0930206B09303060E9483128091710552
:1029400090917205A0917305B0917405B695A79505
:1029500097958795209104063091050640910606CB
:102960005091070682279327A427B5278093040652
:1029700090930506A0930606B09307060E94831263
:1029800016950795F794E7948091080690910906AB
:10299000A0910A06B0910B06E826F9260A271B2704
:1029A000E0920806F092090600930A0610930B06BF
:1029B00010927105109272051092730510927405B1
:1029C0001092750510927605109277051092780591
:1029D0000E9483121F910F91FF90EF900895982FFE
:1029E0008150823078F0A8950E948312209175055D
:1029F00030917605809171059091720528273927CD
:102A00003F7743C09130F9F4809175059091760538
:102A1000A0917705B09178052091710530917205EC
:102A2000409173055091740582279327A427B527F9
:102A3000EFE0B695A79597958795EA95D1F79C0114
:102A40002370307022C09230F9F480917505909116
:102A50007605A0917705B0917805209171053091A8
:102A60007205409173055091740582279327A4271E
:102A7000B52771E1B695A795979587957A95D1F782
:102A80009C012170307001C00895C9010895909192
:102A9000620580917005981739F081E080936F0589
:102AA000809162058093700580916205823009F4FF
:102AB00048C0833030F4882359F0813009F051C088
:102AC0002AC0833009F445C0853009F04AC02FC0C0
:102AD0008091DD058823C1F080915F05882321F472
:102AE00080916005882381F080916005882329F01A
:102AF0008091D9058093120604C080915F058823D8
:102B000081F18091D00522C08091CF05809312067B
:102B10008091D8051BC08091DB05882321F080912E
:102B2000DB05823039F48091E105809312068091B3
:102B3000D7050CC08091D705809312068091E105DE
:102B400005C084E1809312068091D205809313061C
:102B500008958091DC05809312068091D3058093BF
:102B600013060895AF92CF92EF920F93A82FB0E083
:102B7000E02FF0E0CD01840F911D8E179F07B4F078
:102B8000EC0DF11DEA17FB078CF070E04E2D50E0C4
:102B9000CB01820F911D8417950744F080E04A0D08
:102BA000511D461757071CF081E001C080E00F91CE
:102BB000EF90CF90AF900895CF93DF93C82FD0E0E0
:102BC000E42FF0E0E053F84F833010F42C96319767
:102BD000262F30E02F5F3F4F2E0F3F1FCE01880F73
:102BE000991F280F391FCF01969587959695879540
:102BF000280F391FCF0160E971E00E941D36260FB2
:102C0000371FCF0164E670E00E941D36261B370B8C
:102C1000AE014F5F5F4FCA01880F991F840F951F48
:102C2000880F991F6AE070E00E941D36C901860F67
:102C3000971F67E070E00E941D36DF91CF910895E5
:102C4000EF92FF920F931F9380E00E94EF14A0E099
:102C5000B0E0BC01CD010E94843320E030E048E4C4
:102C600052E40E949C3020E03EEF4FEF56E40E9479
:102C7000963120E030E040EA51E40E946F307B0161
:102C80008C0181E00E94EF1483702AE5829FC001CD
:102C90001124AA2797FDA095BA2FBC01CD010E944F
:102CA000D2329B01AC01C801B7010E946F3026E50A
:102CB0003EE049E450E40E949C3020E030E044E3F0
:102CC00053E40E9496311F910F91FF90EF90089569
:102CD0002F923F924F925F926F927F928F929F922C
:102CE000AF92BF92CF92DF92EF92FF920F931F931A
:102CF000DF93CF93CDB7DEB761970FB6F894DEBF01
:102D00000FBECDBFEC86FD860E871F87998A888A05
:102D10002D833E834F835887AC01CB01DA013C0100
:102D20004D01C501D6015C016D011A8619869FC04F
:102D30006D817E818F819885A60195010E946F30FB
:102D40001B012C01C401B3012C853D854E855F8597
:102D50000E946F3069837A838B839C83C201B101A7
:102D600020E030E048E652E40E94423218167CF43B
:102D7000D7FAD094D7F8D0940F2EF0E02F2EF0E0B1
:102D80003F2EF8E64F2EF2E45F2EF02D18C0C20160
:102D9000B10120E030E040E050E40E94A2328823FC
:102DA00074F4D7FAD094D7F8D0940F2EF0E02F2EE9
:102DB000F0E03F2EF0E04F2EF0E45F2EF02D698121
:102DC0007A818B819C810E9430336B876F368CF0C7
:102DD000C801B70120E030E046EE52E40E94A23282
:102DE00088233CF460E070E086EE92E4A80197014D
:102DF00013C0FB85FE3054F5C401B30120E030E080
:102E000040E551E40E944232181604F560E070E09B
:102E100080E591E4A40193010E943E302C853D851C
:102E20004E855F850E949631A60195010E949C30D7
:102E30009B01AC016D817E818F8198850E946F30EE
:102E40000E94C62EE889F989608307C0F985FF23AF
:102E500021F48A858F5F8A8702C0E1E0E9872D82AD
:102E60003E824F82588669807A808B809C80C40124
:102E7000B30120E030E04CEE52E40E94A2328823FD
:102E80009CF4C401B30120E030E040E850E40E942B
:102E90006F307B018C0120E030E040E251E40E9481
:102EA000423218160CF444CF6D817E818F81988553
:102EB0000E94C62EEEA1FFA160838A8561960FB69F
:102EC000F894DEBF0FBECDBFCF91DF911F910F9160
:102ED000FF90EF90DF90CF90BF90AF909F908F903A
:102EE0007F906F905F904F903F902F9008957F92CA
:102EF0008F929F92AF92BF92CF92DF92EF92FF920A
:102F00000F931F93CF93DF93D82E762EC22E85E09A
:102F1000489FA001112476EEE72E7FEFF72EE40EF6
:102F2000F51E6BEE862E6FEF962E840E951EF70122
:102F30008491172DC0E0D0E0A82EBB24C5010C2E33
:102F400002C0959587950A94E2F780FF09C000E0DA
:102F5000CC2009F401E08D2D612F42E022E005C074
:102F60008D2D612F42E022E00C2D0E94C42321967A
:102F70001E5FC730D10511F70894E11CF11CF2E087
:102F8000DF0EE814F90499F6DF91CF911F910F91AC
:102F9000FF90EF90DF90CF90BF90AF909F908F9079
:102FA0007F9008957F928F929F92AF92BF92CF921F
:102FB000DF92EF92FF920F931F93CF93DF93D82E60
:102FC000762EC22E50E0440F551F440F551FF6E6D3
:102FD000EF2EF2E0FF2EE40EF51EEAE68E2EE2E082
:102FE0009E2E840E951EF7018491172DC7E0D0E028
:102FF000A82EBB24C5010C2E02C0959587950A9476
:10300000E2F780FF09C000E0CC2009F401E08D2D3B
:10301000612F42E022E005C08D2D612F42E022E0C9
:103020000C2D0E94C42321971E5FFFEFCF3FDF07C7
:1030300009F70894E11CF11C82E0D80EE814F904A9
:1030400091F6DF91CF911F910F91FF90EF90DF905C
:10305000CF90BF90AF909F908F907F900895CF9228
:10306000DF92EF92FF920F931F93C82ED62E80917E
:103070006205843009F0E9C0809179058430C9F196
:103080008EE164E04AE02D2D0E94D2178DE264E0CB
:103090004AE02D2D0E94D21786E464E04AE02D2DEF
:1030A0000E94D21785E564E04AE02D2D0E94D217D8
:1030B0006091F8057091F9058091FA059091FB05F2
:1030C0000E94C62E162F6091EB057091EC05809141
:1030D000ED059091EE050E94C62E00E0DD2009F47A
:1030E00001E0812F44E024E00E94C42384E0809327
:1030F0007905CC2009F5E0900E06F0900F060091BE
:103100001006109111066091F4057091F5058091FB
:10311000F6059091F7050E94C62E70E06F3171059B
:1031200014F16E327105FCF4C801B7010E94C62E7D
:1031300070E065317105BCF48091E1056091D705BF
:103140004091D2050E94DC1593E0899FF001112483
:10315000EE56FD4FE49183E264E04E2F2D2D0E9448
:103160007717CC2009F5E0900E06F0900F0600913D
:103170001006109111066091F4057091F50580918B
:10318000F6059091F7050E94C62E70E06E3271052B
:1031900014F16D337105FCF4C801B7010E94C62E0D
:1031A00070E065317105BCF48091E1056091D7054F
:1031B0004091D2050E94DC1593E0899FF001112413
:1031C000ED56FD4FE49182E364E04E2F2D2D0E94D9
:1031D0007717CC2021F5E0900E06F0900F060091B5
:1031E0001006109111066091F4057091F50580911B
:1031F000F6059091F7050E94C62E70E062347105C5
:103200000CF47FC2613571050CF07BC2C801B701B7
:103210000E94C62E70E0653171050CF072C280917B
:10322000E1056091D7054091D2050E94DC1593E03D
:10323000899FF0011124EC56FD4FE49186E464E08F
:103240004E2F2D2D0E9477175CC2809162059091C0
:103250007905853009F0EEC0953009F451C09430FD
:1032600091F483E264E040E22D2D0E94771782E31F
:1032700064E040E22D2D0E94771786E464E040E28E
:103280002D2D0E947717809179058823C1F48EE156
:1032900064E04AE02D2D0E94D2178DE264E04AE0FE
:1032A0002D2D0E94D21786E464E04AE02D2D0E9465
:1032B000D21785E564E04AE02D2D0E94D217609177
:1032C000F8057091F9058091FA059091FB050E942F
:1032D000C62E162F6091EB057091EC058091ED05DF
:1032E0009091EE050E94C62E00E0DD2009F401E079
:1032F000812F44E024E00E94C42385E08093790577
:10330000CC2009F5E0900E06F0900F060091100613
:10331000109111066091F4057091F5058091F60504
:103320009091F7050E94C62E70E060317105E4F0BF
:103330006F317105CCF4C801B7010E94C62E70E050
:10334000653171058CF4E091E10583E0E89FF001BF
:103350001124E955FD4FE49184E164E04E2F2D2DB9
:103360000E947717CC2009F5E0900E06F0900F062A
:1033700000911006109111066091F4057091F50509
:103380008091F6059091F7050E94C62E70E06F318E
:103390007105E4F06E327105CCF4C801B7010E94EA
:1033A000C62E70E0653171058CF4E091E10583E093
:1033B000E89FF0011124E855FD4FE49183E264E0B9
:1033C0004E2F2D2D0E947717CC2021F5E0900E0670
:1033D000F0900F0600911006109111066091F4050F
:1033E0007091F5058091F6059091F7050E94C62E23
:1033F00070E06E3271050CF42AC16D3371050CF06A
:1034000026C1C801B7010E94C62E70E06531710562
:103410000CF01DC1E091E10583E0E89FF00111246B
:10342000E755FD4FE49182E364E04E2F2D2D0E947D
:1034300077170BC1892F8450823008F072C0953005
:10344000F1F484E164E040E22D2D0E94771783E2DD
:1034500064E040E22D2D0E94771782E364E040E2B1
:103460002D2D0E94771786E464E04AE02D2D0E94FE
:10347000D21785E564E04AE02D2D0E94D217809195
:103480007905843091F483E264E040E22D2D0E94BE
:10349000771782E364E040E22D2D0E94771786E4DF
:1034A00064E040E22D2D0E947717809179058823F2
:1034B000C1F48EE164E04AE02D2D0E94D2178DE226
:1034C00064E04AE02D2D0E94D21786E464E04AE0D1
:1034D0002D2D0E94D21785E564E04AE02D2D0E9433
:1034E000D2176091F8057091F9058091FA059091D5
:1034F000FB050E94C62E162F6091EB057091EC051E
:103500008091ED059091EE050E94C62E00E0DD2031
:1035100009F401E0812F44E024E00E94C4231092CA
:103520007905CC2009F5E0900E06F0900F06009189
:103530001006109111066091F4057091F5058091C7
:10354000F6059091F7050E94C62E70E06A3171056C
:103550009CF16932710584F5C801B7010E94C62E3D
:1035600070E06531710544F58091D1058823B9F487
:1035700080916205882321F080916205833079F47F
:103580008091120690E047966CE070E00E94313620
:1035900001966AE070E00E943136462F06C08091A5
:1035A00012066AE00E941136482F8EE164E02D2D4C
:1035B0000E94D217CC2009F5E0900E06F0900F067D
:1035C00000911006109111066091F4057091F505B7
:1035D0008091F6059091F7050E94C62E70E0693241
:1035E0007105ACF16833710594F5C801B7010E940B
:1035F000C62E70E06531710554F58091D1058823A0
:10360000C9F480916205882321F08091620583309E
:1036100089F48091120690E047966CE070E00E9479
:10362000313601966AE070E00E943136482F8DE213
:1036300064E008C0809112066AE00E9411368DE2B3
:1036400064E0492F2D2D0E94D217CC2009F5E0907F
:103650000E06F0900F060091100610911106609171
:10366000F4057091F5058091F6059091F7050E949B
:10367000C62E70E062347105C4F061357105ACF49A
:10368000C801B7010E94C62E70E0653171056CF467
:10369000809113066AE00E941136482F86E464E0A8
:1036A0002D2D0E94D217CC2009F5E0900E06F09047
:1036B0000F0600911006109111066091F4057091AB
:1036C000F5058091F6059091F7050E94C62E70E0F1
:1036D00061357105B4F0603671059CF4C801B7011D
:1036E0000E94C62E70E0653171055CF4809113066E
:1036F0006AE00E94113685E564E0492F2D2D0E9475
:10370000D2171F910F91FF90EF90DF90CF90089507
:103710000F931F93082F10E08FE3612F0E941E2745
:10372000002311F080EF01C08FE00E94C5261F5FCB
:10373000173091F78FE367E00E941E27002311F0F6
:1037400080E201C08FEC0E94C5261F910F91089561
:10375000BF92CF92DF92EF92FF920F931F93B82EFA
:103760006091F4057091F5058091F6059091F7054B
:103770000E94C62E7B018C0160910E0670910F068F
:1037800080911006909111060E94C62E9B01AC01FB
:103790008E2D622F44E024E00B2D0E94C423CC2404
:1037A000BB2011F4CC24C3946091F8057091F90505
:1037B0008091FA059091FB050E94C62E7B018C0139
:1037C0006091EB057091EC058091ED059091EE050F
:1037D0000E94C62E9B01AC018E2D622F44E024E096
:1037E0000C2D0E94C423E0900E06F0900F0600916D
:1037F0001006109111066091F4057091F505809105
:10380000F6059091F7050E94C62E70E06B337105A6
:1038100064F0613471054CF4C801B7010E94C62EF2
:1038200070E0613471050CF476C06091E405262FD8
:1038300030E08091E505992787FD90952817390795
:1038400071F08AE043E02CE00B2D0E94C4238AE053
:103850006091E50543E02CE00C2D0E94C4236091AB
:103860000D06262F30E080910C06992787FD909554
:103870002817390771F083E743E02CE00B2D0E94F5
:10388000C42383E760910C0643E02CE00C2D0E94DA
:10389000C423E0900E06F0900F06009110061091E0
:1038A0001106D0900C066091F4057091F505809199
:1038B000F6059091F7050E94C62E70E06F367105EF
:1038C000A4F0673771058CF4C801B7010E94C62EB9
:1038D00070E02D2D30E0CB010496821793072CF079
:1038E000245F3F4F26173707D4F410927000809161
:1038F0006F05882311F010926F0581E080937000AE
:103900006B2D0E942F181F910F91FF90EF90DF9069
:10391000CF90BF9008958B2D0E94881B86CF83E7A0
:103920006D2D43E02CE00C2D0E94C423DECFFF92CE
:103930000F931F93F82E80E060E040E820E40F2D05
:103940000E94C42310E0FF2009F411E080E060E051
:1039500040E822E0012F0E94C42380E06EE340E8AB
:1039600022E00E94C4238AE06091E50543E02CE058
:103970000E94C42383E760910C0643E02CE00E9480
:10398000C4230E9447158091D1058823B9F4809102
:103990006205882321F080916205833079F480915B
:1039A000120690E047966CE070E00E943136019676
:1039B0006AE070E00E943136462F06C08091120600
:1039C0006AE00E941136482F8EE164E02F2D0E949C
:1039D000D2178091D1058823C9F48091620588238C
:1039E00021F080916205833089F48091120690E085
:1039F00047966CE070E00E94313601966AE070E014
:103A00000E943136482F8DE264E008C08091120692
:103A10006AE00E9411368DE264E0492F2F2D0E944A
:103A2000D217809113066AE00E941136482F86E46F
:103A300064E02F2D0E94D217809113066AE00E9445
:103A4000113685E564E0492F2F2D0E94D2178F2D66
:103A50000E94881B1F910F91FF900895EF92FF9293
:103A60000F931F9389E18093E50580930C0680E016
:103A700090E0ACE7B2E48093F8059093F905A09349
:103A8000FA05B093FB0580E090E0A8EFB1E48093E5
:103A9000EB059093EC05A093ED05B093EE050E9425
:103AA00020167B018C010E94B83620E030E040EA0D
:103AB00050E40E949C306093EF057093F005809372
:103AC000F1059093F205C801B7010E94163720E076
:103AD00030E040EA50E40E949C306093E705709328
:103AE000E8058093E9059093EA051F910F91FF90F7
:103AF000EF9008952F923F924F925F926F927F9234
:103B00008F929F92AF92BF92CF92DF92EF92FF92ED
:103B10000F931F93DF93CF93CDB7DEB72E970FB6DA
:103B2000F894DEBF0FBECDBF6091F8057091F90526
:103B30008091FA059091FB056093F4057093F5056B
:103B40008093F6059093F705E090EB05F090EC0577
:103B50000091ED051091EE05E0920E06F0920F0631
:103B600000931006109311062091EF053091F00597
:103B70004091F1055091F2050E946F305B016C019C
:103B80006093F8057093F9058093FA059093FB050F
:103B90006090E7057090E8058090E9059090EA054F
:103BA000C801B701A40193010E946F306093EB0537
:103BB0007093EC058093ED059093EE0520E030E0E6
:103BC00048E652E40E9442321816BCF480E090E0CD
:103BD000A8E6B2E48093EB059093EC05A093ED0585
:103BE000B093EE05D401C301B0588093E7059093DC
:103BF000E805A093E905B093EA056091EB057091A3
:103C0000EC058091ED059091EE0520E030E040E07C
:103C100050E40E94A2328823ECF480E090E0A0E01F
:103C2000B0E48093EB059093EC05A093ED05B09381
:103C3000EE058091E7059091E805A091E905B09126
:103C4000EA05B0588093E7059093E805A093E9054D
:103C5000B093EA05C601B50120E030E048EF52E438
:103C60000E94423218163CF0C601B5010E94303362
:103C700016160CF464C080E090E0ACE7B2E48093E8
:103C8000F8059093F905A093FA05B093FB0580E041
:103C900090E0A8EFB1E48093EB059093EC05A0933E
:103CA000ED05B093EE050E9420167B018C010E9469
:103CB000B83620E030E040EA50E40E949C30609347
:103CC000EF057093F0058093F1059093F205C8011C
:103CD000B7010E94163720E030E040EA50E40E942D
:103CE0009C306093E7057093E8058093E905909315
:103CF000EA056091800520917F05261B8AE043E05C
:103D000000E00E94C4236091840520918305261B56
:103D100083E743E00E94C423109283051092840538
:103D200010927F051092800581E080936F051092BC
:103D300060058091600580935F050E944715809122
:103D4000E5058E838093E40590910C069D83909306
:103D50000D062090EF053090F0054090F105509051
:103D6000F205C201B10120E030E040E050E00E94E5
:103D7000423218160CF038C16091F8057091F905BF
:103D80008091FA059091FB050E9430336F360CF458
:103D900067C0E090F405F090F5050091F6051091EC
:103DA000F705C801B7010E94303360370CF058C0E6
:103DB000C801B70120E030E040E850E40E946F30D5
:103DC0009B01AC0160E070E086EE92E40E943E3020
:103DD0005B016C016090E7057090E8058090E90553
:103DE0009090EA05C801B701A60195010E946F30C5
:103DF0006F83788789879A87E0900E06F0900F0688
:103E000000911006109111060E94C62E70E06F36C8
:103E1000710534F1673771051CF5C601B501A201C2
:103E200091010E949631A40193010E949C309B0154
:103E3000AC01C801B7010E946F307B018C010E9468
:103E4000C62E70E0AD812A2F30E0CB010496821798
:103E5000930734F0245F3F4F261737070CF02CC22E
:103E6000E090EF05F090F0050091F1051091F2055A
:103E7000C801B70120E030E040E050E00E9442324B
:103E800018160CF0FBC16090F8057090F905809051
:103E9000FA059090FB05C401B30120E030E040E852
:103EA00050E40E946F3020E030E046EE52E40E9481
:103EB000A23288230CF0E2C180918405882309F0A6
:103EC0005DC000D02091EB053091EC054091ED05EF
:103ED0005091EE05A090E705B090E805C090E90587
:103EE000D090EA0581E895E0EDB7FEB79283818333
:103EF000C401B301E2E88E2EE5E09E2E0E94681612
:103F000080937A0590918205809181050F900F90A2
:103F1000891738F4809384059C5F909383059450AF
:103F200005C0909384058C5F809383058091600524
:103F3000882379F4892F845080937C05992787FD05
:103F400090950E9469228EEC92E061E00E94F5213A
:103F50001AC000918405109183050F3058F0113379
:103F600028F482E00E94EF1480FF04C00D500093FB
:103F70007C0509C01F5F10937C0505C080917A0500
:103F8000815080937A0530910C0660917C05832FD7
:103F9000861B482F552747FD509557FF03C0509566
:103FA00041955F4F80917A0525E08202C00111247E
:103FB0000497481759070CF461C1842F36173CF455
:103FC000463014F03B5F01C0340F30930C069091E3
:103FD0000C0669170CF052C1863014F0955001C0E0
:103FE000981B90930C064AC18091F8059091F905B1
:103FF000A091FA05B091FB0589839A83AB83BC83BA
:10400000BC01CD010E9430336E300CF07DC0E090D9
:10401000F405F090F5050091F6051091F705C8013B
:10402000B7010E9430336D300CF46EC060E070E078
:1040300080E591E4A80197010E943E305B016C018C
:104040006090E7057090E8058090E9059090EA059A
:10405000C801B701A60195010E946F306B877C876C
:104060008D879E87E0900E06F0900F060091100657
:10407000109111060E94C62E70E0663071050CF496
:1040800043C06E3071050CF03FC0C601B501A201FE
:1040900091010E949631A40193010E949C309B01E2
:1040A000AC01C801B7010E946F307B018C010E94F6
:1040B000C62E70E09E81292F30E0CB010496821736
:1040C000930714F1245F3F4F26173707ECF024C104
:1040D0008B859C85AD85BE858093F8059093F90509
:1040E000A093FA05B093FB05E092EB05F092EC0586
:1040F0000093ED051093EE0510927F051092800558
:1041000010927B0510927E05E090EF05F090F0058F
:104110000091F1051091F205C801B70120E030E0EF
:1041200040E050E00E94A23288230CF0A7C06090CB
:10413000F8057090F9058090FA059090FB05C40190
:10414000B30120E030E040E651E40E94423218160C
:104150000CF094C080918005882309F054C000D0F1
:104160002091EB053091EC054091ED055091EE0565
:10417000A090E705B090E805C090E905D090EA0569
:104180008DE795E0ADB7BEB712969C938E931197CD
:10419000C401B301BEE78B2EB5E09B2E0E946816CA
:1041A00080937A0590917E0580917D050F900F9008
:1041B000891738F4809380059C5F90937F05945015
:1041C00005C0909380058C5F80937F0580915F058B
:1041D000882321F4945090937B051AC000918005A8
:1041E00010917F050F3058F0113328F482E00E94BF
:1041F000EF1480FF04C00D5000937B0509C01F5FC2
:1042000010937B0505C080917A05815080937A05D3
:104210004091E50560917B05242F332727FD3095DC
:10422000862F992787FD9095281B390B37FF03C0F0
:10423000309521953F4F522F80917A0525E08202DB
:10424000C00111240497252F332727FD3095281707
:104250003907A4F046173CF4563014F04B5F01C008
:10426000450F4093E5058091E50568173CF456300D
:1042700014F0855001C0851B8093E5058091E5050C
:1042800083301CF483E08093E50580910C06833035
:104290001CF483E080930C068091E50582331CF0CA
:1042A00081E38093E50580910C0682330CF449C0CC
:1042B00081E380930C0645C08F819885A985BA85D6
:1042C0008093F8059093F905A093FA05B093FB0548
:1042D000E092EB05F092EC050093ED051093EE05EE
:1042E000D201C101B0588093EF059093F005A093DF
:1042F000F105B093F2051092830510928405109297
:104300007C051092820510927F0510928005109214
:104310007B0510927E05A4CDD201C101B0588093D7
:10432000EF059093F005A093F105B093F205698134
:104330007A818B819C810E94C62E6D3009F0C8CE97
:10434000DBCE2E960FB6F894DEBF0FBECDBFCF9159
:10435000DF911F910F91FF90EF90DF90CF90BF9072
:10436000AF909F908F907F906F905F904F903F9015
:104370002F9008959093C5008093C40088E18093A6
:10438000C1008EE08093C200519A5098089506C0F3
:1043900090E000009F5F9E31E1F781508823C1F7D4
:1043A000089548EC50E009C020E137E2FA01319766
:1043B000F1F721503040D1F781508823A9F70895B3
:1043C000982F8091C00085FFFCCF9093C60080E0BD
:1043D00090E008958091C00087FFFCCF8091C600D7
:1043E00008958091C00080780895AC0120E007C056
:1043F0008091C00085FFFCCF3093C6002F5FFA018B
:10440000E20FF11D3491332399F7662371F0809107
:10441000C00085FFFCCF8AE08093C6008091C00079
:1044200085FFFCCF8DE08093C6000895FC0107C096
:104430008091C00085FFFCCF31969093C60090819B
:104440009923B1F70895282F982F92959F709A304D
:1044500030F48091C00085FFFCCF905D05C0809155
:10446000C00085FFFCCF995A9093C600822F90E040
:104470008F7090700A973CF48091C00085FFFCCF4C
:104480002F70205D06C08091C00085FFFCCF2F708B
:10449000295A2093C60008951F93182F892F0E9430
:1044A0002322812F0E9423221F910895EF92FF92D1
:1044B0000F931F937B018C01C801AA27BB270E9481
:1044C0004C22C7010E944C221F910F91FF90EF9048
:1044D00008950F931F93CF93DF938C01E0E1F7E2F0
:1044E00040E0C0E0D0E0C801BF010E941D36262F89
:1044F000662329F4442319F4E130F10549F480914D
:10450000C00085FFFCCF205D2093C600205341E012
:10451000CF016AE070E00E941D362196C530D105BA
:1045200071F0822F90E09C012E9FC0012F9F900D73
:104530003E9F900D1124081B190BFB01D4CFDF9176
:10454000CF911F910F9108951F93CF93DF93482F21
:1045500087FF08C08091C00085FFFCCF8DE280936B
:10456000C6004195E4E6F0E010E0C0E0D0E0842F22
:10457000992787FD9095BF010E941D36262F16169C
:104580002CF0112319F4E130F10549F48091C000B9
:1045900085FFFCCF205D2093C600205311E0CF01A2
:1045A0006AE070E00E941D362196C330D10531F0DB
:1045B0002E9F802D1124481BFB01D9CFDF91CF9175
:1045C0001F9108954F925F926F927F928F929F9268
:1045D000AF92BF92CF92DF92EF92FF920F931F9311
:1045E000CF93DF934B015C01E12C9AECF92E9AE911
:1045F000092F9BE3192F4424C0E0D0E0C501B4018A
:10460000A80197010E944436D22E222341F444206F
:1046100031F481E0E816F1040105110561F480919F
:10462000C00085FFFCCF80E3D80ED092C60080ED9D
:10463000D80E44244394C801B7012AE030E040E09A
:1046400050E00E944436C22E732E642E552E2196C1
:10465000CA30D105A9F06D2D70E080E090E0A8018E
:1046600097010E94F235861A970AA80AB90A2C2DDA
:10467000372D462D552DC901DA017C018D01BECFA4
:10468000DF91CF911F910F91FF90EF90DF90CF902E
:10469000BF90AF909F908F907F906F905F904F9062
:1046A000089508950F931F93CF93DF93482F30E021
:1046B00020E007C081539D4FFC0184918F5F280F3C
:1046C0003F5F822F90E03417A8F3FC01E153FD4FC8
:1046D0000491EC01C053DD4F10E006C0FE0184914F
:1046E0000E94C5261F5F21961017C0F3DF91CF915E
:1046F0001F910F910895DF92EF92FF920F931F93F6
:10470000CF93DF93D62E95E0899FC0011124EC0151
:10471000CE5BDD4F8E0127E4E22E22E0F22EE80E82
:10472000F91EDD2021F0FE018491809502C0F80180
:1047300084910E94C52621960F5F1F4FCE15DF057D
:1047400081F7DD2011F08FEF01C080E00E94C526C7
:1047500080E00E941127DF91CF911F910F91FF9070
:10476000EF90DF9008951F93CF93DF93EC01162F06
:1047700004C0612F0E947B23219688818823C9F77A
:10478000DF91CF911F9108952F923F924F925F92A8
:104790006F927F928F929F92AF92BF92CF92DF9251
:1047A000EF92FF920F931F93CF93DF93282E162F34
:1047B000342EF22E402EC62FD0E0C770D070209736
:1047C00009F45BC0562E569456945694EE2467E036
:1047D000C62EC1228C2C992487FC90945E01A20ED7
:1047E000B11C51E0652E712C35C0DE2CD20C8D2D04
:1047F000652D0E941E270E9478260E947826082F89
:1048000040E050E015C081E0481641F4C30102C009
:10481000880F991F2A95E2F7082B08C0C30102C030
:10482000880F991F2A95E2F7809508234F5F5F4F05
:104830009A01280D391D2A153B0524F48C2D840F6F
:10484000883009F78D2D652D0E941E27802F0E942C
:10485000C526E394E31448F22F2D30E088E090E081
:104860008C1B9D0B8217930714F0FF2404C0812F2B
:1048700087708850F80E187F185FE12EE694E69452
:10488000E694C12FD0E0CF0DD11D43E0D595C7955B
:104890004A95E1F712C0822D6E2D0E941E2710E06E
:1048A00009C081E0481611F48FEF01C080E00E943A
:1048B000C5261F5F1315A8F3E3948E2D90E08C1787
:1048C0009D074CF32F2D2770C9F100E0C22FD0E0D7
:1048D00031E0A32EB12C30C0F02EF20C8F2D6E2DB6
:1048E0000E941E270E9478260E947826182F20E01A
:1048F00030E017C081E0481649F4C501022E02C01D
:10490000880F991F0A94E2F7182B09C0C501022EDF
:1049100002C0880F991F0A94E2F7809518232F5F31
:104920003F4F2C173D0734F38F2D6E2D0E941E270D
:10493000812F0E94C5260F5F031570F280E00E9450
:104940001127DF91CF911F910F91FF90EF90DF9092
:10495000CF90BF90AF909F908F907F906F905F901F
:104960004F903F902F900895DF92EF92FF920F9318
:104970001F93F82E162FD42EE22E41E001E00E9464
:10498000C4238F2D81508D0D612F41E02E2D0E946B
:10499000C4238F2D612F4D2D21E00E94C42311507F
:1049A0001E0D8F2D612F4D2D21E00E94C4231F91DC
:1049B0000F91FF90EF90DF900895EF92FF920F9389
:1049C0001F93F82E162F062F069506950695602F35
:1049D0000E941E270E9478260E947826E82E8F2D9E
:1049E000602F0E941E27177081E090E002C0880FA0
:1049F000991F1A95E2F780958E210E94C52680E0C6
:104A00000E9411271F910F91FF90EF900895EF9250
:104A1000FF920F931F93F82E162F062F06950695DB
:104A20000695602F0E941E270E9478260E947826F5
:104A3000E82E8F2D602F0E941E27177081E090E0D6
:104A400002C0880F991F1A95E2F78E290E94C52689
:104A500080E00E9411271F910F91FF90EF90089521
:104A60003F924F925F926F927F928F929F92AF92FE
:104A7000BF92CF92DF92EF92FF920F931F93CF934B
:104A8000DF93D82EC62E322E462E481AE42EFF244F
:104A9000C701880F991FCC27DD27C81BD90B239688
:104AA0005D2C662E762EAA24BB248824992481E0CE
:104AB000381641F50E2D0C0D8D2D602F0E94072507
:104AC0009C2D9E19192F8D2D692F0E940725852D4C
:104AD000602F0E940725852D612F0E94072504194C
:104AE000802F662D0E940725802F672D0E940725A5
:104AF0001419812F662D0E940725812F672D0E9492
:104B0000072527C00E2D0C0D8D2D602F0E94DD2452
:104B10008C2D8E19182F8D2D612F0E94DD24852D4F
:104B2000602F0E94DD24852D612F0E94DD24041951
:104B3000802F662D0E94DD24802F672D0E94DD24AA
:104B40001419812F662D0E94DD24812F672D0E946C
:104B5000DD24D7FF04C02696C80DD91D0DC02A96A6
:104B6000C5018E199F09880F991F880F991FC80FBB
:104B7000D91F0894E108F1080894A11CB11C84E035
:104B800090E0880E991ED3945A9463947A94EA1410
:104B9000FB040CF08CCFDF91CF911F910F91FF9010
:104BA000EF90DF90CF90BF90AF909F908F907F90CD
:104BB0006F905F904F903F9008952F982D982C986C
:104BC00040985A98279A259A249A389A529A8BB1E3
:104BD0008F708BB985B1807F85B98AB1806F8AB9B2
:104BE00084B18F6084B9089540985A98882319F049
:104BF000813021F402C0409A08955A9A0895F89499
:104C00000E94F4258BB1806F8BB985B18F6085B917
:104C10002F988AB18F708AB984B1807F84B92D9A18
:104C20002C9A000000000AC02C9800000000000030
:104C300000002C9A000000000000000089B193B130
:104C400087FDF2CF2C982D988AB1806F8AB984B1F4
:104C50008F6084B9789408951F93162FF8940E945A
:104C6000FF252F982D982C9A8AB1806F8AB984B12C
:104C70008F6084B98BB18F708BB99BB1812F807F8E
:104C8000892B8BB985B1807F85B985B11F70812B48
:104C900085B90000000000000000000000000000D6
:104CA00000002C9878941F910895F8940E94FF2595
:104CB0002F988AB18F708AB984B1807F84B92D9A78
:104CC0002C9A00000000000000000000000000001E
:104CD000000029B183B12C982D989AB1906F9AB9A0
:104CE00094B19F6094B978948F70207F822B08953F
:104CF000F8948091140682958695869583700E941B
:104D0000FF252F9A8AB18F708AB984B1807F84B9C8
:104D10002D9A2C9A00000000000000000000000006
:104D20000000000099B183B12C982D9878948F7071
:104D3000907F892B089508958093140680E060E4A5
:104D40000E942C261092160681E060E40E942C2618
:104D50001092180680911406682F6F736064829514
:104D60008695869583700E942C2608951F93182F90
:104D700080931506186B80E0612F0E942C2681E03D
:104D8000612F0E942C261F9108950F931F93182FB7
:104D9000009114060295069506950370F894802FED
:104DA0000E94FF252F9A2D982C9A8AB1806F8AB97C
:104DB00084B18F6084B98BB18F708BB99BB1812F17
:104DC000807F892B8BB985B1807F85B985B11F70B4
:104DD000812B85B9000000000000000000000000E9
:104DE000000000002C987894E02FF0E0EE0FFF1FF9
:104DF000EA5EF94F80818F5F8083809114068F5F18
:104E00008093140687FF0AC0809115068F5F8093F8
:104E100015060E94B62680E00E949C261F910F91E5
:104E200008951F93182F106C80E0612F0E942C268C
:104E300081E0612F0E942C261F9108951F93182F47
:104E4000862F0E94B626812F0E949C261F910895CE
:104E50000F931F9300E080E0602F0E941E2710E058
:104E600080E00E94C5261F5F1038D1F70F5F083021
:104E700091F71F910F91089580E00E94112780E023
:104E800060E00E941E2710921606109217061092DC
:104E900018061092190608950E94DD2580E06FE340
:104EA0000E942C2681E06FE30E942C260E94282776
:104EB0000E943C270895982F86E0689F802D11243A
:104EC000692F0E941E2708950895459A449A1092CA
:104ED000CC051092CB051092CE051092CD0580E244
:104EE0008093B800ECEBF0E08081846080831092C6
:104EF000850580818160808380818064808378944F
:104F0000089580E28093B800089590E0611191E0E7
:104F10008E7F982B9093BA0008959093CC05809340
:104F2000CB0508959093CE058093CD050895ECEBC5
:104F3000F0E080818F70806A80830895ECEBF0E070
:104F400080818F70806D808308958091BC0087FF81
:104F5000FCCF08958093BB00ECEBF0E080818F7074
:104F6000806880830895882329F08091BC008F7029
:104F7000806C04C08091BC008F7080688093BC00FE
:104F800008958091BB0008958091B9000895982FED
:104F9000809185058823E1F782E0809385059E7FD7
:104FA00090938605A7E8B5E0FA0102C081918D9340
:104FB0008E2F841B8617D0F31092A7056093A80547
:104FC0008091BC008F70806A8093BC000895982FF8
:104FD000809185058823E1F783E0809385059160C2
:104FE000909386051092C9056093CA058091BC0014
:104FF0008F70806A8093BC00809185058823E1F7DB
:10500000A9EAB5E0FA0102C08D9181938E2F841B2D
:105010008617D0F30895982FFA018091BC008E7FF7
:105020008093BC008091BC008F70806A8093BC002C
:105030008091BC0087FFFCCF9E7F9093BB00809146
:10504000BC008F7080688093BC008091BC0087FF9B
:10505000FCCF8091B900883189F091E012C0808145
:105060008093BB008091BC008F7080688093BC00EF
:105070008091BC0087FFFCCF31966150662379F7A1
:1050800090E08091BC008F70806D8093BC00809117
:10509000BC0084FFFCCF8091BC0081608093BC0089
:1050A000892F08951F93CF93DF93982F162FEA012E
:1050B0008091BC008E7F8093BC008091BC008F707B
:1050C000806A8093BC008091BC0087FFFCCF916018
:1050D0009093BB008091BC008F7080688093BC006F
:1050E0008091BC0087FFFCCF8091B900803469F0CB
:1050F00091E018C08FEF0E94B3278091BC0087FF1A
:10510000FCCF8091BB0089931150123098F780E05A
:105110000E94B3278091BC0087FFFCCF8091BB0029
:10512000888390E08091BC008F70806D8093BC007C
:105130008091BC0081608093BC00892FDF91CF916A
:105140001F9108958091850508951F920F920FB6C3
:105150000F9211242F933F934F935F936F937F93FD
:105160008F939F93AF93BF93EF93FF938091B90079
:10517000887F883609F4CBC0893688F5803309F4F6
:1051800095C08133B0F4803109F45AC0813138F4CC
:10519000882309F43EC1883009F048C151C08032EB
:1051A00009F484C0883209F453C0883109F03EC143
:1051B0004FC0883409F47AC0893438F4883309F44C
:1051C00078C0803409F032C192C0883509F45DC0DE
:1051D000803609F49CC0803509F028C174C0803A3B
:1051E00009F4BEC0813AB0F4803809F49BC081381C
:1051F00038F4803709F48BC0883709F017C187C0AD
:10520000803909F48FC0883909F4A1C0883809F0C1
:105210000DC19DC0883B09F4D1C0893B38F4883A60
:1052200009F4B6C0803B09F001C1B2C0883C09F462
:10523000E0C0883F09F4E7C0803C09F0F7C0D9C05E
:105240008FE096E060E00E94F5218091860514C011
:1052500080EF95E060E00E94F5219091A705809194
:10526000A805981708F0DAC0E92FF0E0E957FA4FDF
:1052700080819F5F9093A7058093BB008091BC00C5
:105280008F7080688093BC00D1C08BED95E060E0AA
:105290000E94F5218091C9059091BB00E82FF0E0B4
:1052A000E755FA4F90838F5F8093C90585EB95E0B2
:1052B000B2C081EA95E060E00E94F5218091BC00D7
:1052C0008F708068AFC08DE895E060E00E94F521A6
:1052D0008091BB009091C905E92FF0E0E755FA4FA6
:1052E00080839F5F9093C90590E00E944C228AE7DB
:1052F00095E060E00E94F5212091C90530E08091A1
:10530000CA0590E001972817390734F51EC087E6D3
:1053100095E060E00E94F52185E08093850510927C
:10532000C90562C083E595E060E00E94F5218091A7
:10533000C9059091BB00E82FF0E0E755FA4F908344
:105340008F5F8093C905803238F48FEF06C08EE3FB
:1053500095E060E00E94F52180E00E94B32766C0DE
:105360008BE295E060E00E94F5218091BC008F7097
:10537000806C8093BC00E091CB05F091CC05309718
:1053800009F452C08091C90569EA75E009954CC0DD
:1053900088E195E060E00E94F52184E08093850536
:1053A000E091CD05F091CE05309731F080E267E8CD
:1053B00075E009958093A8051092A70584E095E013
:1053C00060E00E94F5219091A705E92FF0E0E957F0
:1053D000FA4F80818093BB009F5F9093A7058091D7
:1053E000A805981708F04ACF8091BC008F70806C98
:1053F00049CF82EE94E060E00E94F5218091BC00EC
:105400008F70806C0FC083ED94E060E00E94F52106
:105410000DC082EC94E060E00E94F5218091BC0018
:105420008F70806D8093BC0010928505FF91EF9185
:10543000BF91AF919F918F917F916F915F914F91AC
:105440003F912F910F900FBE0F901F901895482FEE
:1054500020914F0430915004809151049091520456
:10546000281B390B37FF0CC020914F04309150049A
:10547000809151049091520420563A4F281B390BC9
:105480008CE3489FA0011124460F511D80915104C7
:1054900090915204BA01681B790BCB0177FF0AC0C7
:1054A0008091510490915204BA01681B790BCB0191
:1054B00080569A4F8217930718F48091540402C0C3
:1054C000809153048093B4000895EF92FF920F935C
:1054D0001F93CF93DF9388E090E00E942437EC0184
:1054E0008AE090E00E9424378C018CE090E00E94DA
:1054F0001C37F82E8DE090E00E941C37E82E85E0E6
:10550000C13AD80728F4D0935004C0934F0408C080
:1055100060914F047091500488E090E00E94383709
:1055200085E0013A180728F41093520400935104BF
:1055300008C060915104709152048AE090E00E948A
:10554000383780E18F1518F0F092530406C060914F
:1055500053048CE090E00E942A3780E18E1518F009
:10556000E092540406C0609154048DE090E00E94E3
:105570002A37DF91CF911F910F91FF90EF900895FF
:10558000EF92FF920F931F93CF93DF9380916A0561
:105590008F5F80936A050E9428278CE160E00E945B
:1055A0001E2787EC93E060E00E94B32380E067E071
:1055B0000E941E2784ED93E060E00E94B32380E008
:1055C00066E00E941E278AEE93E060E00E94B3230B
:1055D00088E061E00E941E278CEF93E060E00E946B
:1055E000B3238CE561E00E941E27809151049091C5
:1055F00052046CE370E00E941D36F62E00915104B7
:1056000010915204862F60E00E9475098AE360E0E1
:105610000E947B23C8016CE370E00E941D3660E0AD
:105620000E9483048091D105882349F42CE02F1532
:1056300010F480E501C081E460E00E947B2388E0F3
:1056400062E00E941E2788E094E060E00E94B3239D
:1056500084E762E00E941E278091540460E00E946B
:10566000830488E064E00E941E2789E194E060E002
:105670000E94B3238CE564E00E941E2780914F04B2
:10568000909150046CE370E00E941D36F62E00915C
:105690004F0410915004862F60E00E9475098AE340
:1056A00060E00E947B23C8016CE370E00E941D361D
:1056B00060E00E9483048091D105882349F48CE046
:1056C0008F1510F480E501C081E460E00E947B2327
:1056D00088E065E00E941E2788E094E060E00E9478
:1056E000B32384E765E00E941E278091530460E0A5
:1056F0000E94830480E06BE047E00E9454071AE0B8
:105700008AE0E82EC8ECD0E080916C0580FF44C0B0
:1057100010926C05183051F1193028F4812F815006
:10572000863028F439C0193099F01A3019F0FF2466
:10573000F39433C080E060E047E020E300E00E94A3
:10574000C42380E063E147E00E94540719E024C0CD
:1057500080E060E047E020E300E00E94C42380E0B6
:1057600063E247E00E94540718E016C080E060E062
:1057700047E020E300E00E94C42380E06BE247E0C2
:105780000E94540780E067E00E941E2786E294E0B2
:1057900060E00E94B32317E0FF2480916C0588230A
:1057A00021F480916D05882311F0E09269058091C4
:1057B0006C0581FF8EC110926C05153009F43CC157
:1057C000163080F4123009F4C8C0133020F41130C0
:1057D00009F07FC175C0133009F4E0C0143009F03E
:1057E00078C12AC0183009F497C0193038F416303F
:1057F00009F443C1173009F06CC14AC0193021F0D7
:105800001A3009F066C1F7C0809154048093B40047
:1058100084E762E00E941E278091540461E00E94A8
:10582000830480E066E00E941E278DE394E060E040
:105830000E94B32314E04DC184E762E00E941E275A
:105840008091B40060E00E9483048091B400809352
:105850005404109154048DE090E00E941C371817F6
:1058600031F0609154048DE090E00E942A378091DD
:10587000CF056091D8050E94272A80E066E00E944B
:105880001E278AEE93E060E00E94B32319E021C155
:10589000809153048093B40084E765E00E941E2742
:1058A0008091530461E00E94830480E066E00E94DE
:1058B0001E278DE394E060E00E94B32311E009C14C
:1058C00084E765E00E941E278091B40060E00E949A
:1058D00083048091B40080935304109153048CE0AE
:1058E00090E00E941C37181731F0609153048CE04F
:1058F00090E00E942A378091CF056091D8050E94E0
:10590000272A80E066E00E941E278AEE93E060E08E
:105910000E94B32317E0DDC08CE564E00E941E27DF
:1059200080914F04909150046CE370E00E941D360A
:10593000862F61E00E9475098091CF056091D8059E
:105940000E94272A80E066E00E941E278DE394E0F3
:1059500060E00E94B32312E0BCC08CE564E00E94CA
:105960001E2780914F04909150046CE370E00E94D8
:105970001D36862F60E00E9475098EE664E00E9465
:105980001E2780914F04909150046CE370E00E94B8
:105990001D3661E00E94830413E09BC08EE664E044
:1059A0000E941E2780914F04909150046CE370E098
:1059B0000E941D3660E00E94830480E066E00E9441
:1059C0001E278AEE93E060E00E94B32300914F040B
:1059D0001091500488E090E00E94243708171907BE
:1059E00041F060914F047091500488E090E00E9473
:1059F000383718E06EC08CE561E00E941E27809168
:105A00005104909152046CE370E00E941D36862F81
:105A100061E00E9475098091CF056091D8050E94D0
:105A2000272A80E066E00E941E278DE394E060E074
:105A30000E94B32315E04DC08CE561E00E941E2753
:105A400080915104909152046CE370E00E941D36E5
:105A5000862F60E00E9475098EE661E00E941E2795
:105A600080915104909152046CE370E00E941D36C5
:105A700061E00E94830416E02CC08EE661E00E9483
:105A80001E2780915104909152046CE370E00E94B3
:105A90001D3660E00E94830480E066E00E941E27BD
:105AA0008AEE93E060E00E94B323009151041091CC
:105AB00052048AE090E00E9424370817190741F049
:105AC00060915104709152048AE090E00E9438374E
:105AD0001AE080916C0582FD04C080916D0582FF03
